:040000000200313297
:03000B0002008D63
:0100130032BA
:03001B0002009947
:0100230032AA
:03002B000200AD23
:03008A0002002E43
:03002E000200C508
:20008D00B200300004D2808002C28032C0E0B201300106759298E28004759290E2D0E0323B
:2000AD00C0E0B2023002067592A8E280047592A0E2C2CFC2CED0E0327E007F0090E600E0B3
:2000CD0053E0E7F0D28075B20175891175C80075CA0075CB00D2AFD2A9D2ABD2ADD28CD29C
:2000ED008ED2CA74012EFCE43FFD8C068D07EC4D70F1B2033003067592B0E280E67592B89E
:03010D00E280E0AD
:06006000E478FFF6D8FD74
:20003E007900E94400601B7A00900114780075923CE493F2A308B800020592D9F4DAF27534
:02005E0092FF0F
:200066007800E84400600A790075923CE4F309D8FC7800E84400600C7900903C00E4F0A330
:04008600D8FCD9FACF
:0D003100758120120110E582600302002E8F
:0401100075820022D2
:00000001FF
