:0600000002006B02111961
:03000B0002113AA5
:0300130002111BBC
:03001B000219F6D1
:03002300022E6A40
:03002B000219F8BF
:030033000219FAB5
:03003B00022E6B27
:03004300020100B7
:03004B0002111A85
:03005300020100A7
:03005B0002111C73
:0300630002111D6A
:0300D600020066BF
:03006600020394FE
:2001B900C01F85811FAC82AD837801ECF2ED08F2E51F24FCF87903E6F308E609F3E409F34B
:2001D900E51F24FAF87906E6F308E609F378087401F27582511204FBD01F22C01F85811F55
:2001F900AC82AD83780BECF2ED08F2E51F24FCF8790DE6F308E609F3E409F3E51F24FAF8E1
:200219007910E6F308E609F378127401F278137403F2781474A6F2758251120598D01F22F4
:20023900C01F85811FAC82AD83AEF0FFC3ED9440EE9400EF940050427801ECF2ED08F2E568
:200259001F24FCF87903E6F308E609F3E409F3E51F24FAF886820886837806E0F2A3E00821
:20027900F278087401F27582511204FBE5826005758200801675820E8011E51F24FAF886A4
:2002990082088683E4F0A3F0758200D01F22C01F85811FAC82AD83AEF0FFE51F24FAF8E644
:2002B90008467016BC000EBD400BBE0008BF0005758200805B7582098056C3ED9440EE9447
:2002D90000EF94005047780BECF2ED08F2E51F24FCF8790DE6F308E609F3E409F3E51F2436
:2002F900FAF87910E6F308E609F378127401F278137403F2781474A6F2758251120598E54E
:2003190082600575820080087582038003758208D01F22AE82AF83903ECFE0701A781BEEE7
:20033900F2EF08F2903EAEC007C006120783E582D006D007600122783DEEF2EF08F2903E41
:20035900C812113CE58260012290E6A07401F022C0E0C082C083C000C0D075D00078007430
:2003790001F25391EF90E65B7401F090E659C4F0D0D0D000D083D082D0E03290E6007410F4
:20039900F090E60B7403F061A290E6047480F090E61274A2F090E6A3E4F090E61474E2F0C0
:2003B90090E6A5E4F090E613E053E07FF090E615E053E07FF090E6587410F090E65AC4F057
:2003D90061DB90E6047482F061E390E6497482F061EB90E6497482F061F390E6047486F0D6
:2003F90061FB90E604E4F075820112301390E6A3E020E23D90E690E0FE7F0090E691E07CEF
:20041900004207EC42067821EFF2EE08F2781F7400F274F008F2903EAE120895E582600790
:2004390090E691E4F0800A90E6A37401F090E6A5F07800E2603F78277400F274F808F278D9
:200459002974A2F2743E08F2903EAE120C49E5826019903EA2E0FEA3E0FF4E601490E69843
:20047900EFF0817D90E699EEF0800690E6A57401F07800E4F2903ECFE0FFBF015C90000A13
:2004990012205390E680E043E008F0903ECF7402F07EFE7F37740A2EFEE43FFF8E828F83AA
:2004B900E0FCA3E0FD0CBC00010D8E828F83ECF0EDA3F0903EA87401F0903EA9746EF074DB
:2004D90038A3F0903EAB7404F0903EAC7470F07438A3F0758200123013903EC8121660025E
:0204F9000406F7
:2037FE001201000200000040B4041386000001020301090400000208065000070502020081
:20381E000200070586020002000904010000FE01010009020000020100803210381938206B
:20383E003827385638000030388838A238D0380904000000FE01020409210F0000400001AF
:20385E00010902000001010080324D38563800005F388838DD38D0380B390000010017396E
:20387E008E3900400000B901F4017768697465717561726B407768697465717561726B2E7C
:20389E006F72670046583220736572696573204446552F5546322D636C61737320626F6FA9
:2038BE00746C6F616465722C20554632206D6F64650030303030303030303030303000469B
:2038DE00583220736572696573204446552F5546322D636C61737320626F6F746C6F6164E3
:2038FE0065722C20444655206D6F646500426F6F7420454550524F4D004446552F5546328C
:20391E0020426F6F746C6F6164657220666F722043797072657373204658320D0A4D6F64C7
:20393E00656C3A2047656E6572696320446576656C6F70657220426F6172642077697468D7
:20395E002031364B783820454550524F4D0D0A426F6172642D49443A204658322D47656EB5
:20397E00657269635F31364B78382D76300D0A003C6D65746120687474702D6571756976C1
:20399E003D22726566726573682220636F6E74656E743D22303B2075726C3D6874747073D1
:2039BE003A2F2F6769746875622E636F6D2F7768697465717561726B2F6C69626678322F48
:0339DE00223E0086
:203BC300FE37000001453803473800000200C01A9A1C551D000000000000000000000000A9
:153BE30000000000013902A702000000000000000000000000E8
:2004FB00C007C006C005C001C000AF827808E260127802E2FE7809EEF27801E2FE780AEE85
:20051B00F280087801E2FE7809EEF2EF2FFFF582120F05E58260557808E2FDE23395E0FECF
:20053B000DBD00010E7830EDF2EE08F2903E0975F060120F39E582603374014FF582120F0C
:20055B0005E582602778067935E2F308E209F37803E2F58208E2F58308E2F5F0120FC0E5DB
:20057B00827004F582800B7582018006120F1D758200D000D001D005D006D00722C007C0E9
:20059B0006C005C004C003C002C001C000AF827815E4F208F2EF2FFFF582120F05E582708C
:2005BB00030207537813E2FC8CF005F07B017C008006EB2BFBEC33FCD5F0F778157910C3A8
:2005DB00E3F5F0E295F009E3F5F008E295F040030207537812E26012780CE2FA7817EAF249
:2005FB00780BE2FA7818EAF28008780BE2FA7817EAF2C003C0047812E2FAE23395E0FC0A46
:20061B00BA00010C7830EAF2EC08F2903E1775F060120F39E582D004D0037003020753C0ED
:20063B0007780BE2F58208E2F5838B028C077845EAF2EF08F2C007C004C003C002C001C027
:20065B00001219FCAD82AE83D000D001D002D003D004D007EAC39DFAEF9EFF7819EAF2EFDB
:20067B0008F278107915E3F5F0C3E295F0FE09E3F5F008E295F0FF7819C3E2F5F0EE95F092
:20069B0008E2F5F0EF95F0D007502078107915E3F5F0C3E295F0C0E009E3F5F008E295F0CD
:2006BB00C0E0781AD0E0F218D0E0F2780D7915E3C5F0E225F0FA09E3C5F008E235F0FD0840
:2006DB00E2FE78197930E2F308E209F38A828D838EF0120F39E582605F120F1DE5827004F7
:2006FB00F58280737E007814E2600B7814C3E2F5F0EE95F0500C8F82120F05E58270030E1A
:20071B0080E47814E2B50605758200804A780B7919E3C5F0E225F0F209E3C5F008E235F025
:20073B00F278157919E3C5F0E225F0F209E3C5F008E235F0F20205D6120F1D78157910E257
:20075B00F5F0E3B5F00C08E2F5F009E3B5F003D38001C3E433F582D000D001D002D003D0E7
:08077B0004D005D006D00722CE
:20078300AF83E582781DF2EF08F2781BE2FC08E2FD8C828D83E0FBBB216E8C828D83A3E011
:2007A300FABAFF648C828D83A3A3E0FAA3E0FF4A7056C0038C828D83A3A3A3A3E0FEA3E081
:2007C300FF781DE2F58208E2F583E0FA7B00EEB50206EFB503028004D003802CD0037406CE
:2007E3002CF582E43DF583E0FEA3E0FF4E7019781DE2240AF58208E23400F583E4F090E687
:20080300A07480F075820122BBA10280030208918C828D83A3E0FFBFFE0280030208918CB2
:20082300828D83A3A3E0FEA3E0FF4E70618C828D83A3A3A3A3E0FEA3E0FF781DE2F582085E
:20084300E2F583E0FB7A00EEB50343EFB5023F74062CF582E43DF583E0FEA3E0FFBE012E15
:20086300BF002B781DE22403F58208E23400F583E090E740F090E6B57401F090E68AE4F0F5
:2008830090E68B04F090E6A003F07582012275820022AF83E5827823F2EF08F2781F7925E0
:2008A300E2F308E209F37823E2240AFA08E23400FB8A828B83E0F5226003020B257821E29B
:2008C300B41F0408E2600475820022C002C0037825E2F58208E2F583E0FAA3E0FBA3E0FE21
:2008E300A3E0FFBA550FBB530CBE4209BF4306D003D0028008D003D00275820022C002C0BD
:20090300037825E2240CFE08E23400FF8E828F83E0547F7006D003D0028008D003D0027575
:200923008200227825E2240EF58208E23400F583E0F52324EF5004758200227825E2240D2A
:20094300F52408E23400F525852482852583E0F5267823E22403F58208E23400F583E0C39C
:200963009526500475820022C006C0077823E22411F52708E23400F5287823E22404F5829A
:2009830008E23400F583E0FEA3E0FF7825E2240FFC08E23400FDC007C003C002C023C004A2
:2009A300C0051209AA8008C006C00785268222AE82158115811581D002D003D007852782AA
:2009C300852883EEF07823E2240BF52908E23400F52A7825E22404F58208E23400F583E06B
:2009E300FCA3E0FDA3E0FEA3E0FF852982852A83ECF0EDA3F0EEA3F0EFA3F07823E2240F04
:200A0300FE08E23400FF852482852583E08E828F83F07823E22416F52908E23400F52A85D7
:200A23002982852A83E4F0A3F0A3F0A3F07825E22408F52408E23400F525852482852583F5
:200A4300E0FCA3E0FDA3E0FEA3E0FFEC4D4E4FD007D006700A8A828B837405F0020B21C0C6
:200A630002C0037823E22410F52D08E23400F52E8E828F83E0235401B40100B39200852D74
:200A830082852E83A200E433F07823E22412F52B08E23400F52C852482852583E0FAA3E02B
:200AA300FBA3E0FEA3E0FF852B82852C83EAF0EBA3F0EEA3F0EFA3F0852782852883E0D066
:200AC30003D002601E8A068B07852D82852E83E0600575270380037527018E828F83E52702
:200AE300F0803B852B82852C83E0FCA3E0FDA3E0FEA3E0FF852982852A83ECF0EDA3F0EED7
:200B0300A3F0EFA3F08A068B07852D82852E83E060047D0480027D028E828F83EDF0758275
:200B230001227401B5220474018001E4FF700A7402B522028003020C45EF7003020BE478FC
:200B430023E22406F58208E23400F583E0FEA3E0FF7823E2240FF58208E23400F583E0FD5C
:200B6300C007C003C0027821E2C0E008E2C0E0781FE2C0E008E2C0E0120B808007C006C034
:200B8300078D8222AE82E58124FCF581D002D003D007EE704C7823E22416F52D08E23400D1
:200BA300F52E7823E22412F58208E23400F583E0FCA3E0FDA3E0FEA3E0FF852D82852E8386
:200BC300ECF0EDA3F0EEA3F0EFA3F07823E22411F58208E23400F583E4F08A828B83740290
:200BE300F0C002C0037823E22412FE08E23400FF8E828F83E0F52FA3E0F530A3E0F531A395
:200C0300E0F5327821E2FA08E2FBE4FCFDE52FC39AFAE5309BFBE5319CFCE5329DFD8E820E
:200C23008F83EAF0EBA3F0ECA3F0EDA3F0EA4B4C4DD003D00270078A828B837405F07582E4
:200C4300012275820022AF83E582782BF2EF08F2782BE2240AF53F08E23400F540853F82BE
:200C6300854083E0FBBB03028008BB04028003020DED7829E2F53308E2F534782BE224124D
:200C8300F53508E23400F536853582853683E0F537A3E0F538A3E0F539A3E0F53A782BE2C0
:200CA3002401F58208E23400F583E0FAA3E0FD8A3B8D3C753D00753E00C3E53B9537E53CE2
:200CC3009538E53D9539E53E953A400C85373B85383C85393D853A3EAA3BAF3C853382859F
:200CE3003483EAF0EFA3F0853F82854083E0FFBF03028003020D95782BE22408F58208E274
:200D03003400F583E0FAA3E0FD853382853483E0FCA3E0FF782BE2240FF58208E23400F5B4
:200D230083E0FEC005C004C0077827E2C0E008E2C0E0120D3A8007C002C0058E8222AA828F
:200D4300E58124FCF581D005EA7047782BE22416F53B08E23400F53C853582853683E0FA8C
:200D6300A3E0FDA3E0FEA3E0FF853B82853C83EAF0EDA3F0EEA3F0EFA3F0782BE22411F55B
:200D83008208E23400F583E4F0853F828540837404F0853582853683E0F53BA3E0F53CA38D
:200DA300E0F53DA3E0F53E853382853483E0FAA3E0FFE4FEFDE53BC39AFAE53C9FFFE53D5F
:200DC3009EFEE53E9DFD853582853683EAF0EFA3F0EEA3F0EDA3F0EA4F4E4D7009853F824D
:200DE3008540837405F075820122BB05028003020EC37827792DE2F308E209F37829E2F595
:200E03008208E2F583740DF0E4A3F0782DE2F58208E2F5837455F07453A3F07442A3F074D3
:200E230053A3F0782DE22404FC08E23400FD782BE2240BF58208E23400F583E0FAA3E0FBEA
:200E4300A3E0FEA3E0FF8C828D83EAF0EBA3F0EEA3F0EFA3F0782DE22408FE08E23400FF45
:200E6300782BE22416F58208E23400F583E0FAA3E0FBA3E0FCA3E0FD8E828F83EAF0EBA3C2
:200E8300F0ECA3F0EDA3F0782DE2240CFE08E23400FF782BE22411FC08E23400FD8C828D22
:200EA30083E060067C007D0080047C017D008E828F83ECF0853F82854083E4F07582012275
:040EC3007582002212
:200EC700C007C000AF8290E678E020E00E782FE260F4782FE4F2758200801E90E678E0308A
:200EE700E2057582008012EF600C90E678E0FF035401F5828003758201D000D00722C00779
:200F0700AF8290E6787480F090E679EFF0758201120EC7D0072290E678E030E20475820046
:200F27002290E6787440F090E678E020E6F975820122C007C006C004C003C002C000AFF0DA
:200F4700AE83E5827832F2EE08F2EF08F27830E2F5F008E245F07005758201804F7B007CC4
:200F6700007830E2B5030708E2B50402802B7832E22BFA08E23CFE08E2FF8A828E838FF077
:200F8700122EABFA90E679F0758201120EC7E58260070BBB00CB0C80C87830E2B5030808A2
:200FA700E2B50403D38001C3E433F582D000D002D003D004D006D00722C007C006C005C0BD
:200FC70004C003C002C001C000AFF0AE83E5827837F2EE08F2EF08F27835E2F5F008E245B4
:200FE700F070067582010211087835E2FB08E2FCBB0109BC000690E6787420F090E679E039
:201007007B007C00783AE4F208F2783A7935E2F5F0E3B5F00C08E2F5F009E3B5F003021020
:20102700E2758200120EC7E58270030210F5783AE2FD08E2FE74022DFDE43EFE7835E2B58B
:20104700050708E2B506028002800690E6787420F0783AE2FD08E2FE0DBD00010E7835E27B
:20106700B5050708E2B506028002803575AF03759AE6759B7890E67B7440F0E0ACE0783776
:20108700793AE3C5F0E225F0FD09E3C5F008E235F0FE08E2FF8D828E838FF0EC12111E8027
:2010A700257837793AE3C5F0E225F0FD09E3C5F008E235F0FE08E2FF90E679E0FA8D828E19
:2010C700838FF012111E783AE22401F208E23400F2783AE2FB08E2FC02101190E678E03075
:2010E700E205758200801A90E678E020E6F97835E2B5030808E2B50403D38001C3E433F58C
:1211070082D000D001D002D003D004D005D006D0072296
:06009A00E478FFF6D8FD3A
:0111190032A3
:01111A0032A2
:01111B0032A1
:200078007935E94400601B7A01903BC378A475923EE493F2A308B800020592D9F4DAF27535
:0200980092FFD5
:01111C0032A0
:01111D00329F
:030100000230BD0D
:03010400022E6C5C
:03010800021AB424
:03010C0002207757
:03011000022EAA12
:030114000237535C
:03011800021A8048
:03011C000201B825
:03012000021ABA06
:030124000237514E
:03012800021ABBFD
:03012C0002375245
:0301300002378A09
:030134000211397C
:0301380002113B76
:03013C000219F9AC
:030140000203694E
:030144000201B8FD
:0301480002374B30
:03014C0002374C2B
:0301500002374D26
:0301540002374E21
:0301580002374F1C
:03015C0002375017
:03016000022E6DFF
:030164000201B8DD
:030168000201B8D9
:03016C000201B8D5
:03017000021AB9B7
:03017400021ABCB0
:03017800021ABEAA
:03017C00021FC897
:03018000021ABDA3
:03018400021ABF9D
:03018800021FC98A
:03018C00022078D6
:030190000219FB56
:03019400021A81CB
:03019800021AB593
:03019C00021AB78D
:0301A000021A7FC1
:0301A400021A82BA
:0301A800021AB682
:0301AC00021AB87C
:0301B0000219F73A
:0301B40002377798
:0101B8003214
:1B111E0020F71130F6138883A88220F509F6A8837583002280FEF280F5F022D0
:011139003283
:01113A003282
:01113B003281
:20113C00AF83E582783FF2EF08F2783FE22407FC08E23400FD8C828D83E024FE50067A009D
:20115C007B00800E783FE2F58208E2F583E0FFFA7B00C004C005783DE2FE08E2FF8E828FFE
:20117C0083E0F50A746F550AFDBD21028006D005D004801FD005D0048E828F83A3A3A3A3AD
:20119C00E0F508A3E0F5097B00EAB50806EBB50902800475820022E50A20E73674012EFA9C
:2011BC00E43FFB8A828B83E0702874062EF582E43FF583E0FAA3E0FB4A70178C828D83E082
:2011DC0070108C828D837401F090E6A003F075820122C006C007850A0875090074805508DA
:2011FC00FE7F00BE8005BF00028006D007D0068052D007D0068E828F83A3E0FBBB05448E6E
:20121C00828F83A3A3E0FAA3E0FB4A703674062EF582E43FF583E0FAA3E0FBBA0125BB00E3
:20123C00228C828D83E090E740F090E6B57401F090E68AE4F090E68B04F090E6A003F075F4
:20125C0082012274805508FA7B00BA8005BB000280030213448E828F83A3E0FBBB0302804F
:20127C00030213448E828F83A3A3E0FAA3E0FB4A600302134474062EF582E43FF583E0FA9C
:20129C00A3E0FBBA0605BB000280030213448C828D83E0FBBB030280098C828D83E0FBBB60
:2012BC00061D783FE2240AFA08E23400FB8A828B83E0700B8A828B837401F0758201228C7B
:2012DC00828D83E0FBBB03098C828D837404F080108C828D83E0FBBB06078C828D8374074E
:2012FC00F0783FE22408F58208E23400F583E090E740F090E741740AF090E742E4F0A3F043
:20131C008C828D83E090E744F090E745E4F090E6B504F090E68AE4F090E68B7406F090E6A4
:20133C00A07480F0758201228C828D83E0FB24FE400302163FE50A20E7528E828F83A3E051
:20135C00FBBB04488E828F83A3A3E0FAA3E0FB4A703A74062EF582E43FF583E0FAA3E0FBA9
:20137C004A70298C828D83E0FBBB0A20783FE22408F58208E23400F583E4F08C828D837458
:20139C0002F090E6A07480F07582012274805508FA7B00BA8005BB0002800302146B8E8255
:2013BC008F83A3E0FBBB0202800302146B8C828D83E0FBBB02568C828D837409F0783FE28E
:2013DC00240DF58208E23400F583E4F0A3F0A3F0A3F0783FE2240BF50808E23400F50974D1
:2013FC00062EF582E43FF583E0FAA3E0FB850882850983EAF0EBA3F0783FE22409F5820876
:20141C00E23400F5837401F0758201228C828D83E0FBBB093A783FE2240BF50808E23400C9
:20143C00F50974062EF582E43FF583E0FAA3E0FB850882850983EAF0EBA3F0783FE2240942
:20145C00F58208E23400F5837401F075820122E50A30E7030215C88E828F83A3E0FBBB01A0
:20147C000280030215C88C828D83E0FBBB020280030215098C828D837403F0783FE2240D42
:20149C00F58208E23400F583E4F0A3F0A3F0A3F0783FE2240BF50808E23400F50974062E0D
:2014BC00F582E43FF583E0FAA3E0FB850882850983EAF0EBA3F0783FE22409F58208E234D3
:2014DC0000F5837401F0783FE2240AF58208E23400F583E4F090E6B504F090E68AE4F090E8
:2014FC00E68BF090E6A07480F0758201228C828D83E0FBBB0502800302158F74062EF508D2
:20151C00E43FF509850882850983E0FAA3E0FB4A60618C828D837403F0783FE2240BF50BBE
:20153C0008E23400F50C850882850983E0FAA3E0FB850B82850C83EAF0EBA3F0783FE224BD
:20155C0009F58208E23400F5837401F0783FE2240AF58208E23400F583E4F090E6B504F02D
:20157C0090E68AE4F090E68BF090E6A07480F0758201228C828D83E0FBBB05308C828D836F
:20159C007406F0783FE22409F58208E23400F5837401F0783FE2240AF58208E23400F583B9
:2015BC00E4F090E6A07480F075820122E50A30E70302163F8E828F83A3E0FBBB06658E82F1
:2015DC008F83A3A3E0FAA3E0FB4A705774062EF582E43FF583E0FEA3E0FF4E70468C828D75
:2015FC0083E0FFBF0202802A8C828D83E0FFBF0302801F8C828D83E0FFBF050280148C823B
:20161C008D83E0FFBF060280098C828D83E0FFBF09118C828D837402F090E6A07480F075A6
:20163C00820122783FE22408F58208E23400F583740FF08C828D83740AF090E6A07401F09D
:20165C0075820122AF83E5827841F2EF08F27841E22409F51508E23400F516851582851675
:20167C0083E07001227841E22407FA08E23400FB8A828B83E0FDBD090280030217D078419B
:20169C00E2240BF51308E23400F5148513828514837843E0F2A3E008F27841E22408F50DE5
:2016BC0008E23400F50E7841E22401F58208E23400F583E0F511A3E0F5127841E2240DF5EF
:2016DC000F08E23400F510850F82851083E0FCA3E0FDA3E0FEA3E0FFC003C002C013C01403
:2016FC007440C0E074E7C0E0121709800CC011C0128C828D838EF0EF22AF82E58124FCF5C5
:20171C0081D002D003850D82850E83EFF0850D82850E83E0EF60030219E190E6B57401F096
:20173C0090E68AE4F07841E2240BF51308E23400F514851382851483E090E68BF090E6A0A3
:20175C007480F0851382851483E0FCA3E0FD7843C3E2F5F0EC95F008E2F5F0ED95F05007A9
:20177C008A828B837402F0850F82851083E0F517A3E0F518A3E0F519A3E0F51A8513828561
:20179C001483E0FEA3E0FFE4FDFCEE2517FEEF3518FFED3519FDEC351AFC850F8285108359
:2017BC00EEF0EFA3F0EDA3F0ECA3F0851582851683E4F0228A828B83E0FFBF035290E6A05B
:2017DC00E020E1F978477440F274E708F27841E2240BF58208E23400F5837849E0F2A3E06C
:2017FC0008F290E000121A837841E2240AFE08E23400FF8E828F83E060F9783D74B8F2742E
:20181C00E608F27841E2F58208E2F58302113C8A828B83E0FFBF04028003021932C002C0F9
:20183C00037841E22408FE08E23400FF7841E22403F58208E23400F583E0F50FA3E0F5106C
:20185C007841E2240BF51708E23400F518851782851883E0F511A3E0F5127841E2240DF5FC
:20187C001308E23400F514851382851483E0FAA3E0FBA3E0FCA3E0FDC007C006C003C00273
:20189C00C011C0127400C0E074E0C0E01218AD800CC00FC0108A828B838CF0ED22AD82E5C6
:2018BC008124FCF581D002D003D006D0078E828F83EDF08E828F83E0D003D002ED600302AB
:2018DC0019E1851382851483E0F51BA3E0F51CA3E0F51DA3E0F51E851782851883E0FEA34E
:2018FC00E0FFE4FDFCEE251BFEEF351CFFED351DFDEC351EFC851382851483EEF0EFA3F098
:20191C00EDA3F0ECA3F08A828B837405F0851582851683E4F0228A828B83E0FFBF0627789C
:20193C0041E2240AFE08E23400FF8E828F83E060F9783D74B8F274E608F27841E2F5820883
:20195C00E2F58302113C8A828B83E0FFBF07767841E22405F58208E23400F583E0FEA3E05B
:20197C00FF4E60307841E22408FC08E23400FDC007C005C004C003C0028E828F831200691E
:20199C00AE82D002D003D004D005D0078C828D83EEF0800F7841E22408F58208E23400F5FA
:2019BC0083E4F07841E22408FE08E23400FF8E828F83E070108A828B837402F0851582852F
:1A19DC001683E4F0228A828B83740AF0851582851683E4F090E6A004F022A0
:0119F60032BE
:0119F70032BD
:0119F80032BC
:0119F90032BB
:0119FA0032BA
:0119FB0032B9
:2019FC00AE82AF837D007C007846E2235401FB70357845E225E0F208E233F27845C3E2F5BC
:201A1C00F0EE95F008E2F5F0EF95F050147845E2F5F008E2C313C5F01318F2C5F008F2805B
:201A3C00050C8C0580C27845C3E2F5F0EE95F008E2F5F0EF95F0400E7845D3E29EF4B3FEA6
:201A5C00B308E29FF4FF7845E2F5F008E2C313C5F01318F2C5F008F28D041DEC70C88E8294
:031A7C008F832233
:011A7F003234
:2000A00078A2E84400600A790075923EE4F309D8FC7802E84400600C7901903EA2E4F0A3AB
:0400C000D8FCD9FA95
:011A80003233
:011A81003232
:011A82003231
:201A8300AA82AB837847E2FC08E2FD7849E2FE08E2FFEE60010FEF601775AF078A9B8B9AA2
:111AA3008C9E8D9D90E67CE090E67BF0DEF6DFF42262
:011AB40032FF
:011AB50032FE
:011AB60032FD
:011AB70032FC
:011AB80032FB
:011AB90032FA
:011ABA0032F9
:011ABB0032F8
:011ABC0032F7
:011ABD0032F6
:011ABE0032F5
:011ABF0032F4
:201AC000C01F85811F05810581E51F24FCF886060886078E828F83E0FD700DE51F24FBF822
:201AE000B606004003021C85BD031FE51F24FBF8B60600401574012EFBE43FFC8B828C8360
:201B0000E030E003021C75021C85BD1235E51F24FBF8B60600402B74012EFBE43FFC8B828C
:201B20008C83E030E003021C7574012EFBE43FFC0BBB00010C8B828C83E06003021C75028C
:201B40001C85BD1E0DE51F24FBF8B606004003021C85BD250DE51F24FBF8B60A0040030230
:201B60001C85BD28028003021BEEE51F24FBF8B60A00407AA81F0874012EF6E43F08F6A889
:201B80001F088682088683A3C006C007E0FAA3E0FCA3E0FEA3E08A828C838EF0123792AB59
:201BA00082AC83AEF0FF784EEBF2EC08F2EE08F2EF08F2A81F08740626F582E40836F583FD
:201BC000E0FEA3E0FF7C007B008E828F838CF0EB123792AB82AC83AEF0FF7852EBF2EC08B6
:201BE000F2EE08F2EF08F2D007D006021C85BD2A028003021C75E51F24FBF8B60A00407543
:201C000074012EFCE43FFD8C828D83A3C006C007E0FAA3E0FBA3E0FEA3E08A828B838EF0C3
:201C2000C005C004123792AA82AB83AEF0FFD004D005784EEAF2EB08F2EE08F2EF08F274D4
:201C4000062CF582E43DF583E0FEA3E0FF7D007C008E828F838DF0EC123792AC82AD83AE77
:201C6000F0FF7852ECF2ED08F2EE08F2EF08F2D007D0068010784BE4F208F2784D7405F215
:201C8000758200800F8E828F83E0FE784BF2E408F2758201851F81D01F22C01F85811F7881
:201CA0004BE2B42A0408E26003021D447852E2F5F008E242F008E242F008E245F07005F513
:201CC00082021D52E51F24FAF88606088607BE0005BF020280057582008077E51F24FCF8C1
:201CE000797FE6F308E609F3784EE2F58208E2F58308E2F5F008E2122C44E5827004F5821B
:201D00008050784EE22401F208E23400F208E23400F208E23400F27852E224FFF208E23425
:201D2000FFF208E234FFF208E234FFF27852E2F5F008E242F008E242F008E245F0600A75CD
:201D40008201800E7582008009784BE4F208F2758201D01F22C01F85811F784BE2B40304F2
:201D600008E260028054E51F24FCF88606088607E51F24FCF88604088605E51F24FAF8793A
:201D800087E6F308E609F38C828D83C007C006122E86D006D0078E828F83E054804470F061
:201DA0008E828F83A3A3784DE2540FF5F0E054F045F0F0784DE4F2021FBC784BE2B412049C
:201DC00008E26003021E83E51F24FCF88606088607E51F24FCF88604088605E51F24FAF883
:201DE0007987E6F308E609F38C828D83C007C006122E86D006D0078E828F83A3A3A3A374E0
:201E00001FF08E828F83E054E0F08E828F83A3E04480F074082EFCE43FFD8C828D83784791
:201E200074E1F2743908F278497408F2E408F2C007C006121A83D006D00774102EFCE43FED
:201E4000FD8C828D83784774EAF2743908F278497410F2E408F2C007C006121A83D006D0BA
:201E60000774202EFEE43FFF8E828F83784774FBF2743908F278497404F2E408F2121A83D8
:201E8000021FBC784BE2B4250408E26003021F12E51F24FCF88606088607903878E493FA75
:201EA000A3E493FBA3E493FCA3E493FD1ABAFF091BBBFF051CBCFF011D8A828B838CF0EDB2
:201EC000C007C006123792AA82AB83ACF0FDD006D0078E828F83EAF0EBA3F0ECA3F0EDA371
:201EE000F074042EFEE43FFF900200E4F5F0C007C006123792AA82AB83ACF0FDD006D007C9
:201F00008E828F83EAF0EBA3F0ECA3F0EDA3F0021FBC784BE2B4280408E26003021FB77849
:201F200052E2F5F008E242F008E242F008E245F07005F582021FC5E51F24FAF8860608862B
:201F400007BE0005BF020280057582008077E51F24FCF87973E6F308E609F3784EE2F58297
:201F600008E2F58308E2F5F008E21222AEE5827004F5828050784EE22401F208E23400F273
:201F800008E23400F208E23400F27852E224FFF208E234FFF208E234FFF208E234FFF278BB
:201FA00052E2F5F008E242F008E242F008E245F0600A758201800E7582008009784BE4F2A8
:081FC00008F2758201D01F2216
:1F39E10051692D486172647700437970726573732055463220426F6F74004130202000AF
:011FC80032E6
:011FC90032E5
:201FCA00E583700BE58224FA400122B4001122E5826003D5E0FD0075E0FED583F674F9D5E6
:201FEA00E0FD22C007C006C001C000AE82AF83EE2EF8EF33F9EE28FEEF39FF90E600E0F8B0
:20200A00794C20E416C3EF13CE13CEFF795AE820E309C3EF13CE13CEFF7963E58124FAF8D2
:20202A00E926C313C313F9C3EE99F582EF9400F583D000D001D006D007500122021FCA7406
:20204A0011C0E0121FED158122C007C006AE82AF837411C0E0EE4F600D1EBEFF011F9003A3
:0D206A00E8121FED80EF1581D006D007228F
:012077003236
:02006900E4733E
:012078003235
:1200C4007861744EF2743A08F2786374AEF2743B08F25D
:20207900AF83E582785FF2EF08F2785FE2FC08E2FD8C828D8378567947E2F308E209F37881
:2020990049740BF2E408F2121A83785FE2240BF58208E23400F5837858E213E092E0F0786C
:2020B9005FE2240EFC08E23400FD74022CFAE43DFB8A828B837494F074B2A3F0785FE2241D
:2020D90016F54108E23400F54274022541FEE43542FF8A828B83E0FAA3E0FB8E828F83EA94
:2020F900F0EBA3F08C828D83E0FCA3E0FD854182854283ECF0EDA3F0785FE2241AF582087B
:20211900E23400F5837859E2F008E2A3F0785FE2241CF58208E23400F583785BE2F008E263
:20213900A3F008E2A3F008E2A3F022AE82AF837870E2C4540FFC53040F7D007863E22CF5C7
:202159008208E23DF583E4938E828F83F074012EFCE43FFD7870E2FA53020F7B007863E29D
:202179002AF58208E23BF583E4938C828D83F074022EFCE43FFD786FE2FA08E2C4CAC45470
:202199000F6ACA540FCA6ACA53020F7B007863E22AF58208E23BF583E4938C828D83F074AF
:2021B900032EFEE43FFF7870E218E2FC53040F7D007863E22CF58208E23DF583E4938E828C
:2021D9008F83F022AF83E5827871F2EF08F27871E2FC08E2FD7861E2F54308E2F5447861C8
:2021F900E2FB08E2FE7F808B828E838FF0C005C004122E6EAE82AF83D004D0057849EEF282
:20221900EF08F27847E543F2E54408F28C828D83121A837871E22413F58208E23400F583E4
:202239007865796FE2F308E209F31221447871E2242CF58208E23400F5837867796FE2F3CA
:2022590008E209F31221447871E22445F58208E23400F5837869796FE2F308E209F3122110
:20227900447871E2245EF58208E23400F583786B796FE2F308E209F31221447871E2247744
:20229900F58208E23400F583786D796FE2F308E209F3022144AF82AE83ADF0FC7875EFF260
:2022B900EE08F2ED08F2EC08F27875E2F5F008E242F008E242F008E245F0600302246578DF
:2022D90073E2FF08E2FE7873E2F58208E2F5837887E4F2740208F2C007C006122E86D00695
:2022F900D00774032FFAE43EFB8A828B8378477400F2743A08F278497408F2E408F2C00776
:20231900C006121A83D006D0078F828E8374EBF08F828E83A3743CF08F828E83A3A3749040
:20233900F0740B2FF582E43EF583E4F07402A3F0740D2FF582E43EF5837401F0740E2FF52C
:2023590082E43EF5837401F0E4A3F074102FF582E43EF5837401F074112FF582E43EF5837E
:202379007410F0E4A3F074152FF582E43EF58374F8F074162FF545E43EF546903878E4932D
:20239900F547A3E493F548A3E493F549A3E493F54AAA48AB49854582854683EAF0EBA3F008
:2023B90074202FF547E43EF548903878E493F54BA3E493F54CA3E493F54DA3E493F54E8516
:2023D9004782854883E54BF0E54CA3F0E54DA3F0E54EA3F074262FF582E43EF5837429F0F5
:2023F900742B2FFAE43EFB8A828B8378477409F2743A08F27849740BF2E408F2C007C00652
:20241900121A83D006D00774362FFAE43EFB8A828B8378477415F2743A08F278497408F22C
:20243900E408F2C007C006121A83D006D00774FE2FF58274013EF5837455F074FF2FF582A7
:2024590074013EF58374AAF0758201227875C3E2940108E2940008E2940008E2940050031C
:202479000226B9903878E493A3E493FBA3E493FEA3E493FF8B028E038F067F000ABA000966
:202499000BBB00050EBE00010F7875C3E29A08E29B08E29E08E29F40030226B97875E2FCCB
:2024B90008E2FD1CBCFF011D7879EC08F2E418F27873E2FC08E2FD7873E2F58208E2F5830C
:2024D9007887E4F2740208F2C005C004122E86D004D0057879E2F5F008E245F070478C820A
:2024F9008D8374F8F074FFA3F08C828D83A3A374F8F074FFA3F08C828D83A3A3A3A374F875
:20251900F074FFA3F074062CF582E43DF58374F8F074FFA3F074082CF582E43DF58374F870
:20253900F074FFA3F07879E2FA08E2FBC3940150030226B5C004C005903880E493FAA3E489
:2025590093FBA3E493FCA3E493FD74FF2AE43BFBE43CFCE43DFD8B028C038D047D008A4BB7
:2025790074022BF54CE43CF54DE43DF54E7879E2FC08E2FD7E007F00C3E54B9CE54C9DE5A5
:202599004D9EE54E9FD005D00450030226B57879797BE2F308E209F3C004C005903880E437
:2025B90093F54BA3E493F54CA3E493F54DA3E493F54E74FF254BE4354CFDE4354DFEE43559
:2025D9004EFF8D048E058F067F0074012DFDE43EFEE43FFF787BE2F54708E2F54875490086
:2025F900754A00C3E5479CE5489DE5499EE54A9FD005D00440030226B574FF254BE4354C03
:20261900FBE4354DFEE4354EFF8B028E038F067F0074FF2AFAE43BFBE43EFEE43FFFEAB518
:202639004738EBB54834EEB54930EFB54A2C787B7979E3F5F0C3E295F0FE09E3F5F008E220
:2026590095F0FFEE2EFEEF33FFEE2CF582EF3DF58374F8F074FFA3F08034787B7979E3F59A
:20267900F0C3E295F0FE09E3F5F008E295F0FFEE2EFEEF33FFEE2CF582EF3DF583787BE2A5
:20269900FE08E2FF0EBE00010FEEF0EFA3F0787BE22401F208E23400F20225B17582012210
:2026B900903878E493F547A3E493F548A3E493F549A3E493F54A85484B85494C854A4D7543
:2026D9004E007401254BFAE4354CFBE4354DFEE4354EFF7875C3E29A08E29B08E29E08E267
:2026F9009F50030228DB7402254BFCE4354CFDE4354DFEE4354EFF7875C3E29C08E29D08FF
:20271900E29E08E29F40030228DB7401254BFCE4354CFDE4354DFEE4354EFF7875E2C39C14
:20273900FC08E29DFD08E29EFE08E29FFFEDC4CCC4540F6CCC540FCC6CCCFDEEC454F04D6F
:20275900FDEFC4CEC4540F6ECE540FCE6ECE7873797DE2F308E209F37873E2F58208E2F553
:20277900837887E4F2740208F2C005C004122E86D004D005EC4D60030228D790387CE49328
:20279900FCA3E493FD7B808C828D838BF0122E6EAC82AD83785BECF2ED08F2E408F208F2FD
:2027B9007856741EF2743A08F278587401F2785904F2E408F2787DE2F58208E2F583122048
:2027D90079787DE22420FC08E23400FD90387EE493FAA3E493FB7F808A828B838FF0C0050C
:2027F900C004122E6EAE82AF83D004D005785BEEF2EF08F2E408F208F27856742AF2743AC3
:2028190008F278587401F278597403F2E408F28C828D83122079787DE22440FE08E2340036
:20283900FF7861E2FB08E2FC7D808B828C838DF0C007C006122E6EAC82AD83D006D0077890
:202859005BECF2ED08F2E408F208F278567436F2743A08F278587401F278597404F2E408F7
:20287900F28E828F83122079787DE22460FE08E23400FF78567442F2743A08F2903880E4C0
:2028990093FAA3E493FBA3E493FCA3E493FD74FF2AE43BFBE43CFCE43DFD7A00785BEA2AFE
:2028B900F2EB3308F2EC3308F2ED3308F27858E4F27859F20408F28E828F83122079758297
:2028D90001227402254BFCE4354CFDE4354DFEE4354EFF7875C3E29C08E29D08E29E08E287
:2028F9009F5003022C407402254BF54BE4354CF54CE4354DF54DE4354EF54EE547C3954B72
:20291900FAE548954CFBE549954DFEE54A954EFFEA254BFAEB354CFBEE354DFEEF354EFFE2
:202939007875C3E29A08E29B08E29E08E29F4003022C40AE48AF4974022EFEE43FFF78756C
:20295900E2FC08E2FDECC39EFCED9FFD74022CFCE43DFDBC0245BD00427873E2F54B08E212
:20297900F54C90387CE493FAA3E493FB8A478B487F808A828B838FF0122E6EAE82AF83786F
:2029990049EEF2EF08F27847E547F2E54808F2854B82854C83121A83022C3CBC0345BD0088
:2029B900427873E2F54B08E2F54C90387EE493FAA3E493FB8A478B487F808A828B838FF07C
:2029D900122E6EAE82AF837849EEF2EF08F27847E547F2E54808F2854B82854C83121A83EB
:2029F900022C3CBC0412BD000F7873E2F58208E2F5831221DD022C3C8C068D0774FF2F408E
:202A190003022C3CC006C007903880E493FAA3E493FBA3E493FEA3E493FF74FF2AE43BFBED
:202A3900E43EFEE43FFF8B028E038F067F008A4B74012BF54CE43EF54DE43FF54E7E007F8C
:202A590000C3EC954BED954CEE954DEF954ED007D0064003022C3C7873E2FA08E2FB78736D
:202A7900E2F58208E2F5837887E4F2740208F2C007C006C003C002122E86D002D003D006EA
:202A9900D0078A828B837455F07446A3F07432A3F0740AA3F08A828B83A3A3A3A37457F07B
:202AB9007451A3F0745DA3F0749EA3F074082AF582E43BF583E4F07420A3F0E4A3F0A3F0E3
:202AD90074142AF582E43BF583EF24FFFF8E478F48E4F549F54AE547F0E548A3F0E549A352
:202AF900F0E54AA3F074182AF54BE43BF54C903880E493FCA3E493FDA3E493FEA3E493FFB2
:202B190074FF2CE43DFDE43EFEE43FFF7C00EDA2E7CC33CC33CC5401FDEE2E4DFDEFA2E7B1
:202B3900CE33CE33CE5401FF854B82854C83ECF0EDA3F0EEA3F0EFA3F074102AFEE43BFF89
:202B59008E828F83E4F004A3F0E4A3F0A3F0740C2AF54BE43BF54C8E828F837889E0F2A3E3
:202B7900E008F2A3E008F2A3E008F28547828548838549F0E54AC007C006C003C002122E8B
:202B9900C785824785834885F049F54AD002D003D006D007854B82854C83E547F0E548A3D6
:202BB900F0E549A3F0E54AA3F0741C2AF582E43BF583749BF07406A3F07418A3F0745AA325
:202BD900F074FC2AF58274013BF5837430F0746FA3F074B1A3F0740AA3F0903884E493FC21
:202BF900A3E493FD8E828F83E0FEA3E0FF74202AFAE43BFBC005C006C007C002C003122C3C
:202C19001C8010C004C0058547828548838549F0E54A22AC82E58124FCF581D005EC70035B
:202C3900F582227582012275820022AF82AE83ADF0FC7881EFF2EE08F2ED08F2EC08F29095
:202C59003878E493F553A3E493F554A3E493F555A3E493F55685544F85555085565175527B
:202C7900007402254FFCE43550FDE43551FEE43552FF7881C3E29C08E29D08E29E08E29F4B
:202C99005003022E5B7402254FF54FE43550F550E43551F551E43552F552E553C3954FFA26
:202CB900E5549550FBE5559551FEE5569552FFEA254FFAEB3550FBEE3551FEEF3552FF7881
:202CD90081C3E29A08E29B08E29E08E29F4003022E5B787F7985E2F308E209F37885E2F533
:202CF9008208E2F583E0FAA3E0FBA3E0FCA3E0FDBA5553BB4650BC324DBD0A4A7885E2247E
:202D190004F58208E23400F583E0FAA3E0FBA3E0FCA3E0FDBA572FBB512CBC5D29BD9E26F7
:202D39007885E224FCF58208E23401F583E0FAA3E0FBA3E0FCA3E0FDBA300BBB6F08BCB182
:202D590005BD0A02800F7869E22401F208E23400F2758201227885E22408F58208E2340059
:202D7900F583E0FAA3E0FBA3E0FCA3E0FDBA002FBB202CBC0029BD00267885E2241CF5821D
:202D990008E23400F583E0FAA3E0FBA3E0FCA3E0FDBA9B0BBB0608BC1805BD5A02800F780B
:202DB90067E22401F208E23400F2758201227865E22401F208E23400F2903886E493FCA326
:202DD900E493FD7885E22410F58208E23400F583E0F54FA3E0F5507885E22420FE08E2341B
:202DF90000FF8E538F547885E2240CF58208E23400F583E0FAA3E0FBA3E0FEA3E0FFC005BB
:202E1900C04FC050C053C054122E26800CC004C0058A828B838EF0EF22AC82E58124FCF586
:202E390081D005EC600D786BE22401F208E23400F2800B786DE22401F208E23400F275826E
:112E590001227869E22401F208E23400F27582012241
:203A00004D5357494E342E3100435950524553532055463200464154313620202000494E36
:203A2000464F5F55463254585400494E44455820202048544D005354415455532020545834
:203A4000540043555252454E542055463200426C6F636B732061636365707465643A2030C1
:203A6000783F3F3F3F0D0A2020202020202072656A65637465643A2030783F3F3F3F0D0A80
:203A8000202020202020202069676E6F7265643A2030783F3F3F3F0D0A2020202020202049
:203AA00020666C61736865643A2030783F3F3F3F0D0A2020202020202020206661696C65D9
:203AC000643A2030783F3F3F3F0D0A0D0A4B65793A0D0A2D2061636365707465643A207686
:203AE000616C6964206D6167696320616E6420706172616D65746572730D0A2D2072656ABF
:203B000065637465643A2076616C6964206D6167696320627574206E6F7420706172616D08
:203B200065746572730D0A2D202069676E6F7265643A20696E76616C6964206D6167696394
:203B40002028757375616C6C792066696C6573797374656D206D65746164617461290D0A08
:203B60002D2020666C61736865643A207375636365737366756C6C79207772697474656E55
:203B800020746F204E564D0D0A2D2020206661696C65643A2074696D656F75742077726935
:1F3BA00074696E6720746F204E564D0D0A00303132333435363738394142434445460087
:012E6A003235
:012E6B003234
:012E6C003233
:012E6D003232
:182E6E00AA82AB83122EAB6003A380F8C3E5829AF582E5839BF58322B1
:202E8600AA82AB837887E2FC08E2FDEC60010DED601175AF038A9B8B9A90E67B7400F0DCB4
:042EA600FDDDFB2231
:012EAA0032F5
:0D006B00758160123773E582600302006644
:1C2EAB0020F71430F6148883A88220F507E6A88375830022E280F7E49322E02236
:202EC700AF82AE83ADF0FC788DEFF2EE08F2ED08F2EC08F2788DE2FF788BE28FF0A4FFADBB
:202EE700F07893EFF208EDF2788DE2FF7889E28FF0A4FFADF07891EFF208EDF27894E2FFC2
:202F07007890E2FE7889E28EF0A42FFF7894F2788FE2FE788AE28EF0A42F7894F27893E28A
:202F2700FE08E2FF788FE2FD7889E28DF0A4ABF02EFEEB3FFF7893EEF208EFF2788EE2FD10
:202F4700788AE28DF0A4ABF02EFEEB3FFF7893EEF208EFF2788EE2FF788BE28FF0A47890AA
:202F6700F2788EE2FF7889E28FF0A4FFADF0788EEFF208EDF2788DE2FF788CE28FF0A4789A
:202F87008CF2788DE2FF788AE28FF0A4FFADF0788AEFF208EDF27889E4F2788DF27891E2A0
:202FA700F55B08E2F55C08E2F55D08E2F55E788DE2FA08E2FB08E2FE08E2FFEA255BF55BB5
:202FC700EB355CF55CEE355DF55DEF355EF55E7891E55BF208E55CF208E55DF208E55EF287
:202FE7007891E208E208E208E27889E2FC08E2FD08E2FE08E2FFEC255BFCED355CFDEE3584
:0C3007005DFEEF355E8C828D838EF02222
:20301300AF827896E4F27897F2D2E890E668E043E008F090E65CE043E001F090E65D7401E6
:20303300F0D2AF90E680E020E10890E680E043E002F0EF600E90E680E043E008F090000A5A
:2030530012205390E680E053E0F7F022AF82BF00028037BF01028036BF02028039BF040264
:203073008038BF06028037BF08028036BF80028019BF8102801CBF8202801BBF8402801A13
:20309300BF86028019BF881E801890E6A02290E6A12290E6A22290E6A32290E6A42290E6A8
:2030B300A52290E6A62290000022C021C0E0C0F0C082C083C007C006C005C004C003C002F5
:2030D300C001C000C0D075D000C08675860090E6B8E0FFE4BF800104FE601B90E6B9E0FD8C
:2030F300BD061390E6BAE0FCA3E0F58278A1ECF212377802333BEF702790E6B9E0FDBD0961
:203113001F90E6BAE0F5821237DCE582600990E6A07480F002333B90E6A07401F002333BAC
:20313300EE600E90E6B9E0FDBD08061237BF02333B8F05BD012F90E6B9E0FDBD0B2790E6DF
:20315300BCE0FD90E6BA78A0E0F28D82123754E582600990E6A07480F002333B90E6A07439
:2031730001F002333BE4BF810104FD601490E6B9E0FCBC0A0C90E6BCE0F5821237A50233B8
:203193003BEF703790E6B9E0FCBC032F90E6BAE0FBA3E0FCBB0110BC000D78967401F2902E
:2031B300E6A003F002333BBB0205BC0002800302333B90E6A07480F002333BEE603590E63D
:2031D300B9E0702F7895E2FE7896E225E0FC420690E740EEF090E741E4F090E6B504F090AE
:2031F300E68AE4F090E68B7402F090E6A07480F002333BED602890E6B9E0702290E740E4F6
:20321300F090E741F090E6B504F090E68AE4F090E68B7402F090E6A07480F002333BBF027E
:203233000280030232E090E6B9E0FEBE03028008BE010280030232E090E6BAE0FDA3E0FEA4
:203253004D600302333B90E6BCE0F58212305FAD82AE83ED4E700302333B90E6B9E0FCBCCC
:2032730003188D828E83E0FC4304018D828E83ECF090E6A07480F002333B90E6BCE0F582ED
:20329300C006C00512379BE582D005D006700302333B8D828E83E0FC5304FE8D828E83EC5A
:2032B300F090E6BCE0FDA3E08D0453040F530580E4C423CDC423541F6DCD541FCD6DCDFE06
:2032D30090E683ED4CF0E043E020F0805BBF825290E6B9E0704C90E6BCE0F58212305FAE95
:2032F30082AF838E048F05EE4F603D8C828D83E0FC5304017F00EC4FB40100B39201E433E9
:20331300FF90E740F090E741E4F090E6B504F090E68AE4F090E68B7402F090E6A07480F014
:20333300800690E6B812032C5391EF90E65D7401F0D086D0D0D000D001D002D003D004D09A
:2033530005D006D007D083D082D0F0D0E0D02132AE82AF837898E2B4012C7899E270278E23
:20337300828F83E493FCA3E493FD7847ECF2ED08F28C828D83E4937849F2E408F290E00002
:20339300121A830235D27898E2B4063C7899E270378E828F83A3A3E493FCA3E493FD4C7032
:2033B3000790E6A07401F0228C028D037847EAF2EB08F28C828D83E4937849F2E408F29002
:2033D300E000121A830235D27898E2B4020280030234F08E828F83A3A3A3A3E493FD7899BC
:2033F300C3E29D40030234F08E828F83A3A3A3A3A3E493FCA3E493FD7899E275F002A42C0A
:20341300F582ED35F0F583E493FCA3E493FD74092CFFE43DFE8C028D037847EAF2EB08F2A9
:203433008C828D83E4937849F2E408F290E000C007C006C005C004121A83D004D005D0069F
:20345300D0078C828D83E493FC2400F557E434E0F5588F028E0385575985585A8A828B8394
:20347300E493FCA3E493FD7847ECF2ED08F28C828D83E4937849F2E408F2855982855A8343
:20349300C003C002121A83D002D0038A828B83E493FCA3E493FD8C828D83E4932557F5573F
:2034B300E43558F55874022AFAE43BFB8A828B83E493FCA3E4934C709D90E002E0FCA3E0B6
:2034D300FD4C60030235D2E557C39400FCE55894E0FD90E002ECF0EDA3F00235D27898E21E
:2034F300B4030474018001E4FD60227899E2701D784774BFF2743B08F2903BBFE4937849D6
:20351300F2E408F290E000121A830235D2ED70030235CB7899E2FC7D0024FFFAED34FFFB9A
:2035330074072EF582E43FF583C006C007E493FF7E00C3EA9FEB64808EF063F08095F0D07B
:2035530007D006507374082EF582E43FF583E493FEA3E493FF1CBCFF011DEC2CFCED33FD48
:20357300EC2EF582ED3FF583E493FEA3E493FF90E0007402F090E00104F074012401FCE4C0
:2035930034E0FD8E828F83E493FB60330EBE00010F8C828D83EBF074012CFAE43DFB8A8248
:2035B3008B83E4F0042AFCE43BFD90E000E0FB0B0B90E000EBF080CB90E6A07401F0227EBE
:2035D300007FE090E6B57401F090E6B3EFF090E6B4EEF090E6A07480F022AE82AF83A3A315
:2035F300A3A3A3E493FCA3E493FD74042EFEE43FFF789CE4F28E828F83E493FA789CC3E249
:203613009A400122C006C007789CE275F002A42CF582ED35F0F583E493FAA3E493FF789D40
:2036330074092AF2E43F08F2755B008A828F83A3A3A3A3A3E493FF7897E2B507028007D028
:2036530007D006023742D007D006789DE2F55C08E2F55DC004C005855C82855D83E493FA0C
:20367300A3E493FD8A828D83A3E493F55E7404B55E028006D005D004804AD005D004855C87
:2036930082855D83E493F55FA3E493F560855F82856083A3A3E493FA789AE2B50214855FCE
:2036B30082856083A3A3A3E493FA789BE2B502028006789FE4F28005789F7401F2789FE296
:2036D300F55B804D7405B55E48E55B6044C004C005855C82855D83E493FAA3E493FD8A821D
:2036F3008D83A3A3E493FD740F5DFC530580E423CDC423541F6DCD541FCD6DCD30E40244FD
:20371300E0FA90E683ED4CF0E043E020F0D005D0047402255CF55CE4355DF55D855C8285E6
:183733005D83E493FAA3E493FB4A6003023666789CE22401F202360880
:043BBF0004030904EE
:01374B00324B
:01374C00324A
:01374D003249
:01374E003248
:01374F003247
:013750003246
:013751003245
:013752003244
:013753003243
:1F375400AF8278A0E27014789AEFF278A0799BE2F3903EA41235ED7582012275820022DA
:043773007582002239
:01377700321F
:12377800AF827898EFF278A17999E2F3903EA402336313
:01378A00320C
:10378B00C582C583C58222C582C5F0C583C5F0221B
:0A379B0090E6A07480F07582012210
:1A37A50090E740E4F090E6B504F090E68AE4F090E68B04F090E6A003F0226C
:1D37BF0090E7407897E2F090E6B57401F090E68AE4F090E68B04F090E6A003F022D1
:2037DC00E582FF6003BF01167897EFF2789A74FFF2789BF2903EA41235ED7582012275820B
:0237FC000022A9
:00000001FF
