:0600000002006B020C7807
:03000B00020C994B
:03001300020C7A62
:03001B0002155576
:03002300021E4278
:03002B0002155764
:03003300021C911B
:03003B00021E435F
:03004300020100B7
:03004B00020C792B
:03005300020100A7
:03005B00020C7B19
:03006300020C7C10
:0700C400781CE4F202006663
:0300660002071975
:2001C40043B2072253B2F82275AF0385829B85839A7800E2FA08E2FBEA60010BEB604890C1
:2001E400E67BE0A2E7C2819282D281A2E6C2819282D281A2E5C2819282D281A2E4C28192C9
:2002040082D281A2E3C2819282D281A2E2C2819282D281A2E1C2819282D281A2E0C2819224
:2002240082D281DABDDBBB2275AF0385829B85839A7802E2FA08E2FBEA60010BEB60489077
:20024400E67BC281A283D28192E7C281A283D28192E6C281A283D28192E5C281A283D281E5
:2002640092E4C281A283D28192E3C281A283D28192E2C281A283D28192E1C281A283D281BC
:2002840092E0F0DABDDBBB22D280D281D28222903E6074ABF0C28078007401F2E408F290C2
:2002A4003E601201CCD28022903E6074B9F0C28078007401F2E408F2903E601201CCD280A0
:2002C40022AC82AD83AEF0FF903E607403F08E03903E61EBF08D03903E62EBF0903E63EC15
:2002E400F0C28078007404F2E408F2903E601201CC78067902E2F308E209F37804E2F58272
:2003040008E2F58312022CD28022903E607406F0C28078007401F2E408F2903E601201CC1F
:20032400D28022903E607405F0C28078007401F2E408F2903E601201CC78027401F2E408D5
:20034400F2903E6012022CD280903E60E0F58222903E607460F0C28078007401F2E408F24F
:20036400903E601201CCD28022AC82AD83AEF0FF903E607420F08E03903E61EBF08D039090
:200384003E62EBF0903E63ECF0C28078007404F2E408F2903E601201CCD28022AC82AD83F0
:2003A400AEF0FF903E607402F08E03903E61EBF08D03903E62EBF0903E63ECF0C28078000B
:2003C4007404F2E408F2903E601201CC780A7900E2F308E209F37808E2F58208E2F58312C1
:2003E40001CCD28022AC82AD83AEF0FFC3ED9440EE9400EF9400503C781EECF2ED08F278D5
:200404000C7920E2F308E209F3E409F3780EE2F58208E2F5837823E0F2A3E008F27825745C
:2004240001F275825112079EE58260047582002275820E22780EE2F58208E2F583E4F0A303
:20044400F075820022AC82AD83AEF0FF7812E2F5F008E245F07014BC000DBD400ABE00070B
:20046400BF00047582002275820922C3ED9440EE9400EF9400503F7828ECF2ED08F2781075
:20048400792AE2F308E209F3E409F37812792DE2F308E209F3782F7401F278307403F27898
:2004A4003174A6F275825112083BE5826004758200227582032275820822AC82AD83AEF041
:2004C400FFC3EE9410EF940050297816E2F58208E2F5837806E0F2A3E008F278147904E2C7
:2004E400F308E209F38C828D838EF0EF1202C5758200227816E2F58208E2F583E4F0A3F0F2
:2005040075820022AC82AD83AEF0FF781AE2F5F008E245F07014BC000DBD000ABE1007BFA3
:2005240000047582002275820922C3EE9410EF9400400475820822EC4D4E4F704AC007C024
:2005440006C005C00412030E120354D004D005D006D007C007C006C005C004120327E5826D
:20056400D004D005D006D00720E0E8C007C006C005C004120327E582D004D005D006D0072A
:2005840030E10475820422C007C006C005C00412030ED004D005D006D00778187908E2F3B0
:2005A40008E209F3781A790AE2F308E209F38C828D838EF0EF1203A0120327E58220E0F8A6
:2005C400120327E58230E1047582032275820022C01F85811FAC82AD83AEF0FF781CE27045
:2005E40026E51F24FCF8790CE6F308E609F3E51F24FAF8790EE6F308E609F38C828D838E5D
:20060400F0EF1203E9802F781CE2B40126E51F24FCF87914E6F308E609F3E51F24FAF879FA
:2006240016E6F308E609F38C828D838EF0EF1204BE800375820ED01F22C01F85811FAC82B3
:20064400AD83AEF0FF781CE27026E51F24FCF87910E6F308E609F3E51F24FAF87912E6F3D7
:2006640008E609F38C828D838EF0EF120449802F781CE2B40126E51F24FCF87918E6F30814
:20068400E609F3E51F24FAF8791AE6F308E609F38C828D838EF0EF120508800375820ED002
:2006A4001F22E582701D90E740781CE2F090E6B57401F090E68AE4F090E68B04F090E6A075
:2006C40003F02290E6A07401F022E582FF7025781DE26006781DE2B4011A781D791CE2F347
:2006E4007853EFF2781D7954E2F3903E64121B327582012275820022AE82AF837846EEF24F
:20070400EF08F2903E6E120C9BE58260012290E6A07401F02290E6007410F01201C87582B4
:2007240001121558903E75E0FFBF016590000A121E0A90E680E043E008F0903E757402F080
:200744007E947F1E740A2EFEE43FFF8E828F83E0FCA3E0FD0CBC00010D8E828F83ECF0EDDB
:20076400A3F0903E687401F0903E6974F2F0741EA3F0903E6B7404F0903E6C74F4F0741ED0
:1A078400A3F01201C412028C120293758200121558903E6E1211BF020728E5
:201E94001201000200000040B40413860000010200010904000000FE01010009020000016B
:201EB40001008032A61ED61E0000AF1EFC1E161F0904000000FE0102030904000100FE0169
:201ED400020409210F000040000101090200000101008032C41ED61ECD1ED61E0000DF1EFC
:201EF400FC1E3B1F5B1F6B1F7768697465717561726B407768697465717561726B2E6F727D
:201F140067004578616D706C65206170706C69636174696F6E207769746820444655207358
:201F34007570706F72740046583220736572696573204446552D636C61737320626F6F7452
:201F54006C6F616465720046583220626F6F7420454550524F4D004170706C6963617469D3
:0D1F74006F6E2053504920466C6173680069
:1B1F8500941E000001BE1E02C01E00D4053D06000000000000000000000000B6
:20079E00C007C006C005C001C000AF827825E26012781FE2FE7826EEF2781EE2FE7827EE4E
:2007BE00F28008781EE2FE7826EEF2EF2FFFF582120A64E58260557825E2FDE23395E0FE79
:2007DE000DBD00010E7839EDF2EE08F2903E2675F060120A98E582603374014FF582120AEC
:2007FE0064E58260277823793EE2F308E209F37820E2F58208E2F58308E2F5F0120B1FE539
:20081E00827004F582800B7582018006120A7C758200D000D001D005D006D00722C007C0E9
:20083E0006C005C004C003C002C001C000AF827832E4F208F2EF2FFFF582120A64E582706F
:20085E00030209F67830E2FC8CF005F07B017C008006EB2BFBEC33FCD5F0F77832792DC306
:20087E00E3F5F0E295F009E3F5F008E295F040030209F6782FE260127829E2FA7834EAF2A7
:20089E007828E2FA7835EAF280087828E2FA7834EAF2C003C004782FE2FAE23395E0FC0A0F
:2008BE00BA00010C7839EAF2EC08F2903E3475F060120A98E582D004D00370030209F6C023
:2008DE00077828E2F58208E2F5838B028C077859EAF2EF08F2C007C004C003C002C001C051
:2008FE0000121C93AD82AE83D000D001D002D003D004D007EAC39DFAEF9EFF7836EAF2EF7F
:20091E0008F2782D7932E3F5F0C3E295F0FE09E3F5F008E295F0FF7836C3E2F5F0EE95F095
:20093E0008E2F5F0EF95F0D0075020782D7932E3F5F0C3E295F0C0E009E3F5F008E295F0ED
:20095E00C0E07837D0E0F218D0E0F2782A7932E3C5F0E225F0FA09E3C5F008E235F0FD0843
:20097E00E2FE78367939E2F308E209F38A828D838EF0120A98E582605F120A7CE582700477
:20099E00F58280737E007831E2600B7831C3E2F5F0EE95F0500C8F82120A64E58270030EE0
:2009BE0080E47831E2B50605758200804A78287936E3C5F0E225F0F209E3C5F008E235F029
:2009DE00F278327936E3C5F0E225F0F209E3C5F008E235F0F2020879120A7C7832792DE23E
:2009FE00F5F0E3B5F00C08E2F5F009E3B5F003D38001C3E433F582D000D001D002D003D042
:080A1E0004D005D006D0072228
:200A2600C007C000AF8290E678E020E00E7838E260F47838E4F2758200801E90E678E0301D
:200A4600E2057582008012EF600C90E678E0FF035401F5828003758201D000D00722C0071E
:200A6600AF8290E6787480F090E679EFF0758201120A26D0072290E678E030E20475820091
:200A86002290E6787440F090E678E020E6F975820122C007C006C004C003C002C000AFF080
:200AA600AE83E582783BF2EE08F2EF08F27839E2F5F008E245F07005758201804F7B007C58
:200AC600007839E2B5030708E2B50402802B783BE22BFA08E23CFE08E2FF8A828E838FF00B
:200AE600121E69FA90E679F0758201120A26E58260070BBB00CB0C80C87839E2B503080836
:200B0600E2B50403D38001C3E433F582D000D002D003D004D006D00722C007C006C005C062
:200B260004C003C002C001C000AFF0AE83E5827840F2EE08F2EF08F2783EE2F5F008E24547
:200B4600F07006758201020C67783EE2FB08E2FCBB0109BC000690E6787420F090E679E07B
:200B66007B007C007843E4F208F27843793EE2F5F0E3B5F00C08E2F5F009E3B5F003020CAF
:200B860041758200120A26E5827003020C547843E2FD08E2FE74022DFDE43EFE783EE2B50A
:200BA600050708E2B506028002800690E6787420F07843E2FD08E2FE0DBD00010E783EE20F
:200BC600B5050708E2B506028002803575AF03759AE6759B7890E67B7440F0E0ACE0784013
:200BE6007943E3C5F0E225F0FD09E3C5F008E235F0FE08E2FF8D828E838FF0EC120C7D806A
:200C06002578407943E3C5F0E225F0FD09E3C5F008E235F0FE08E2FF90E679E0FA8D828EAC
:200C2600838FF0120C7D7843E22401F208E23400F27843E2FB08E2FC020B7090E678E03054
:200C4600E205758200801A90E678E020E6F9783EE2B5030808E2B50403D38001C3E433F528
:120C660082D000D001D002D003D004D005D006D007223C
:06009A00E478FFF6D8FD3A
:010C78003249
:010C79003248
:010C7A003247
:20007800791BE94400601B7A01901F85786475923EE493F2A308B800020592D9F4DAF275E9
:0200980092FFD5
:010C7B003246
:010C7C003245
:03010000021602E2
:03010400021E4494
:03010800021D5580
:03010C00021E2EA2
:03011000021E6864
:03011400021E8D3B
:03011800021D17AE
:03011C000201B825
:03012000021D5C61
:03012400021E8B2D
:03012800021D5D58
:03012C00021E8C24
:03013000021E9319
:03013400020C9822
:03013800020C9A1C
:03013C00021C9012
:03014000021D5944
:030144000201B8FD
:03014800021E850F
:03014C00021E860A
:03015000021E8705
:03015400021E8800
:03015800021E89FB
:03015C00021E8AF6
:03016000021E4537
:030164000201B8DD
:030168000201B8D9
:03016C000201B8D5
:03017000021D5B12
:03017400021D5E0B
:03017800021D7DE8
:03017C00021D7FE2
:03018000021D5FFE
:03018400021D7EDB
:03018800021D80D5
:03018C00021E2F21
:03019000021C92BC
:03019400021D1831
:03019800021D56EF
:03019C00021D58E9
:0301A000021D1627
:0301A400021D1920
:0301A800021D57DE
:0301AC00021D5AD7
:0301B000021556DF
:0301B400021E9296
:0101B8003214
:1B0C7D0020F71130F6138883A88220F509F6A8837583002280FEF280F5F02276
:010C98003229
:010C99003228
:010C9A003227
:200C9B00AF83E5827848F2EF08F27848E22407FC08E23400FD8C828D83E024FE50067A0031
:200CBB007B00800E7848E2F58208E2F583E0FFFA7B00C004C0057846E2FE08E2FF8E828F92
:200CDB0083E0F50A746F550AFDBD21028006D005D004801FD005D0048E828F83A3A3A3A353
:200CFB00E0F508A3E0F5097B00EAB50806EBB50902800475820022E50A20E73674012EFA42
:200D1B00E43FFB8A828B83E0702874062EF582E43FF583E0FAA3E0FB4A70178C828D83E027
:200D3B0070108C828D837401F090E6A003F075820122C006C007850A08750900748055087F
:200D5B00FE7F00BE8005BF00028006D007D0068052D007D0068E828F83A3E0FBBB05448E13
:200D7B00828F83A3A3E0FAA3E0FB4A703674062EF582E43FF583E0FAA3E0FBBA0125BB0089
:200D9B00228C828D83E090E740F090E6B57401F090E68AE4F090E68B04F090E6A003F0759A
:200DBB0082012274805508FA7B00BA8005BB00028003020EA38E828F83A3E0FBBB0302809B
:200DDB0003020EA38E828F83A3A3E0FAA3E0FB4A6003020EA374062EF582E43FF583E0FA8E
:200DFB00A3E0FBBA0605BB00028003020EA38C828D83E0FBBB030280098C828D83E0FBBBAC
:200E1B00061D7848E2240AFA08E23400FB8A828B83E0700B8A828B837401F0758201228C17
:200E3B00828D83E0FBBB03098C828D837404F080108C828D83E0FBBB06078C828D837407F3
:200E5B00F07848E22408F58208E23400F583E090E740F090E741740AF090E742E4F0A3F0DF
:200E7B008C828D83E090E744F090E745E4F090E6B504F090E68AE4F090E68B7406F090E64A
:200E9B00A07480F0758201228C828D83E0FB24FE400302119EE50A20E7528E828F83A3E09D
:200EBB00FBBB04488E828F83A3A3E0FAA3E0FB4A703A74062EF582E43FF583E0FAA3E0FB4F
:200EDB004A70298C828D83E0FBBB0A207848E22408F58208E23400F583E4F08C828D8374F5
:200EFB0002F090E6A07480F07582012274805508FA7B00BA8005BB00028003020FCA8E82A1
:200F1B008F83A3E0FBBB02028003020FCA8C828D83E0FBBB02568C828D837409F07848E2D0
:200F3B00240DF58208E23400F583E4F0A3F0A3F0A3F07848E2240BF50808E23400F509746D
:200F5B00062EF582E43FF583E0FAA3E0FB850882850983EAF0EBA3F07848E22409F5820812
:200F7B00E23400F5837401F0758201228C828D83E0FBBB093A7848E2240BF50808E2340066
:200F9B00F50974062EF582E43FF583E0FAA3E0FB850882850983EAF0EBA3F07848E22409DF
:200FBB00F58208E23400F5837401F075820122E50A30E7030211278E828F83A3E0FBBB01EB
:200FDB000280030211278C828D83E0FBBB020280030210688C828D837403F07848E2240D2A
:200FFB00F58208E23400F583E4F0A3F0A3F0A3F07848E2240BF50808E23400F50974062EAA
:20101B00F582E43FF583E0FAA3E0FB850882850983EAF0EBA3F07848E22409F58208E2346F
:20103B0000F5837401F07848E2240AF58208E23400F583E4F090E6B504F090E68AE4F09084
:20105B00E68BF090E6A07480F0758201228C828D83E0FBBB050280030210EE74062EF5081D
:20107B00E43FF509850882850983E0FAA3E0FB4A60618C828D837403F07848E2240BF50B5B
:20109B0008E23400F50C850882850983E0FAA3E0FB850B82850C83EAF0EBA3F07848E2245A
:2010BB0009F58208E23400F5837401F07848E2240AF58208E23400F583E4F090E6B504F0CA
:2010DB0090E68AE4F090E68BF090E6A07480F0758201228C828D83E0FBBB05308C828D8315
:2010FB007406F07848E22409F58208E23400F5837401F07848E2240AF58208E23400F5834D
:20111B00E4F090E6A07480F075820122E50A30E70302119E8E828F83A3E0FBBB06658E823C
:20113B008F83A3A3E0FAA3E0FB4A705774062EF582E43FF583E0FEA3E0FF4E70468C828D1A
:20115B0083E0FFBF0202802A8C828D83E0FFBF0302801F8C828D83E0FFBF050280148C82E0
:20117B008D83E0FFBF060280098C828D83E0FFBF09118C828D837402F090E6A07480F0754C
:20119B008201227848E22408F58208E23400F583740FF08C828D83740AF090E6A07401F03A
:2011BB0075820122AF83E582784AF2EF08F2784AE22409F51508E23400F516851582851609
:2011DB0083E0700122784AE22407FA08E23400FB8A828B83E0FDBD0902800302132F784AD4
:2011FB00E2240BF51308E23400F514851382851483784CE0F2A3E008F2784AE22408F50D79
:20121B0008E23400F50E784AE22401F58208E23400F583E0F511A3E0F512784AE2240DF582
:20123B000F08E23400F510850F82851083E0FCA3E0FDA3E0FEA3E0FFC003C002C013C014A8
:20125B007440C0E074E7C0E0121268800CC011C0128C828D838EF0EF22AF82E58124FCF510
:20127B0081D002D003850D82850E83EFF0850D82850E83E0EF600302154090E6B57401F0E1
:20129B0090E68AE4F0784AE2240BF51308E23400F514851382851483E090E68BF090E6A040
:2012BB007480F0851382851483E0FCA3E0FD784CC3E2F5F0EC95F008E2F5F0ED95F0500746
:2012DB008A828B837402F0850F82851083E0F517A3E0F518A3E0F519A3E0F51A8513828507
:2012FB001483E0FEA3E0FFE4FDFCEE2517FEEF3518FFED3519FDEC351AFC850F82851083FF
:20131B00EEF0EFA3F0EDA3F0ECA3F0851582851683E4F0228A828B83E0FFBF035290E6A000
:20133B00E020E1F9785B7440F274E708F2784AE2240BF58208E23400F583785DE0F2A3E0E0
:20135B0008F290E000121D24784AE2240AFE08E23400FF8E828F83E060F9784674B8F2741D
:20137B00E608F2784AE2F58208E2F583020C9B8A828B83E0FFBF04028003021491C002C0E2
:20139B0003784AE22408FE08E23400FF784AE22403F58208E23400F583E0F50FA3E0F51000
:2013BB00784AE2240BF51708E23400F518851782851883E0F511A3E0F512784AE2240DF590
:2013DB001308E23400F514851382851483E0FAA3E0FBA3E0FCA3E0FDC007C006C003C00219
:2013FB00C011C0127400C0E074E0C0E012140C800CC00FC0108A828B838CF0ED22AD82E511
:20141B008124FCF581D002D003D006D0078E828F83EDF08E828F83E0D003D002ED60030250
:20143B001540851382851483E0F51BA3E0F51CA3E0F51DA3E0F51E851782851883E0FEA398
:20145B00E0FFE4FDFCEE251BFEEF351CFFED351DFDEC351EFC851382851483EEF0EFA3F03D
:20147B00EDA3F0ECA3F08A828B837405F0851582851683E4F0228A828B83E0FFBF06277842
:20149B004AE2240AFE08E23400FF8E828F83E060F9784674B8F274E608F2784AE2F582080E
:2014BB00E2F583020C9B8A828B83E0FFBF0776784AE22405F58208E23400F583E0FEA3E09E
:2014DB00FF4E6030784AE22408FC08E23400FDC007C005C004C003C0028E828F83120069BB
:2014FB00AE82D002D003D004D005D0078C828D83EEF0800F784AE22408F58208E23400F597
:20151B0083E4F0784AE22408FE08E23400FF8E828F83E070108A828B837402F085158285CB
:1A153B001683E4F0228A828B83740AF0851582851683E4F090E6A004F02245
:011555003263
:011556003262
:011557003261
:20155800AF82784FE4F27850F2D2E890E668E043E008F090E65CE043E001F090E65D74014A
:20157800F0D2AF90E680E020E10890E680E043E002F0EF600E90E680E043E008F090000A30
:20159800121E0A90E680E053E0F7F022AF82BF00028037BF01028036BF02028039BF040285
:2015B8008038BF06028037BF08028036BF80028019BF8102801CBF8202801BBF8402801AE9
:2015D800BF86028019BF881E801890E6A02290E6A12290E6A22290E6A32290E6A42290E67E
:2015F800A52290E6A62290000022C021C0E0C0F0C082C083C007C006C005C004C003C002CB
:20161800C001C000C0D075D000C08675860090E6B8E0FFE4BF800104FE601B90E6B9E0FD61
:20163800BD061390E6BAE0FCA3E0F582785FECF2121E30021880EF702790E6B9E0FDBD09AF
:201658001F90E6BAE0F582121E46E582600990E6A07480F002188090E6A07401F0021880DD
:20167800EE600E90E6B9E0FDBD0806121D600218808F05BD012F90E6B9E0FDBD0B2790E604
:20169800BCE0FD90E6BA781DE0F28D821206CEE582600990E6A07480F002188090E6A0741F
:2016B80001F0021880E4BF810104FD601490E6B9E0FCBC0A0C90E6BCE0F5821206A60218AF
:2016D80080EF703790E6B9E0FCBC032F90E6BAE0FBA3E0FCBB0110BC000D784F7401F29006
:2016F800E6A003F0021880BB0205BC0002800302188090E6A07480F0021880EE603590E695
:20171800B9E0702F784EE2FE784FE225E0FC420690E740EEF090E741E4F090E6B504F09011
:20173800E68AE4F090E68B7402F090E6A07480F0021880ED602890E6B9E0702290E740E4A1
:20175800F090E741F090E6B504F090E68AE4F090E68B7402F090E6A07480F0021880BF022A
:2017780002800302182590E6B9E0FEBE03028008BE0102800302182590E6BAE0FDA3E0FE24
:201798004D600302188090E6BCE0F5821215A4AD82AE83ED4E700302188090E6B9E0FCBC24
:2017B80003188D828E83E0FC4304018D828E83ECF090E6A07480F002188090E6BCE0F58299
:2017D800C006C005121D1AE582D005D00670030218808D828E83E0FC5304FE8D828E83ECA1
:2017F800F090E6BCE0FDA3E08D0453040F530580E4C423CDC423541F6DCD541FCD6DCDFEDC
:2018180090E683ED4CF0E043E020F0805BBF825290E6B9E0704C90E6BCE0F5821215A4AE40
:2018380082AF838E048F05EE4F603D8C828D83E0FC5304017F00EC4FB40100B39200E433BF
:20185800FF90E740F090E741E4F090E6B504F090E68AE4F090E68B7402F090E6A07480F0EA
:20187800800690E6B81206FC5391EF90E65D7401F0D086D0D0D000D001D002D003D004D09D
:2018980005D006D007D083D082D0F0D0E0D02132AE82AF837851E2B4012C7852E270278E87
:2018B800828F83E493FCA3E493FD785BECF2ED08F28C828D83E493785DF2E408F290E000B0
:2018D800121D24021B177851E2B4063C7852E270378E828F83A3A3E493FCA3E493FD4C70C7
:2018F8000790E6A07401F0228C028D03785BEAF2EB08F28C828D83E493785DF2E408F290B0
:20191800E000121D24021B177851E2B402028003021A358E828F83A3A3A3A3E493FD785225
:20193800C3E29D4003021A358E828F83A3A3A3A3A3E493FCA3E493FD7852E275F002A42CFB
:20195800F582ED35F0F583E493FCA3E493FD74092CFFE43DFE8C028D03785BEAF2EB08F26B
:201978008C828D83E493785DF2E408F290E000C007C006C005C004121D24D004D005D006BD
:20199800D0078C828D83E493FC2400F522E434E0F5238F028E038522248523258A828B83A8
:2019B800E493FCA3E493FD785BECF2ED08F28C828D83E493785DF2E408F28524828525835B
:2019D800C003C002121D24D002D0038A828B83E493FCA3E493FD8C828D83E4932522F522DB
:2019F800E43523F52374022AFAE43BFB8A828B83E493FCA3E4934C709D90E002E0FCA3E0F6
:201A1800FD4C6003021B17E522C39400FCE52394E0FD90E002ECF0EDA3F0021B177851E24E
:201A3800B4030474018001E4FD60227852E2701D785B7481F2741F08F2901F81E493785D7E
:201A5800F2E408F290E000121D24021B17ED7003021B107852E2FC7D0024FFFAED34FFFBBD
:201A780074072EF582E43FF583C006C007E493FF7E00C3EA9FEB64808EF063F08095F0D051
:201A980007D006507374082EF582E43FF583E493FEA3E493FF1CBCFF011DEC2CFCED33FD1E
:201AB800EC2EF582ED3FF583E493FEA3E493FF90E0007402F090E00104F074012401FCE496
:201AD80034E0FD8E828F83E493FB60330EBE00010F8C828D83EBF074012CFAE43DFB8A821E
:201AF8008B83E4F0042AFCE43BFD90E000E0FB0B0B90E000EBF080CB90E6A07401F0227E94
:201B1800007FE090E6B57401F090E6B3EFF090E6B4EEF090E6A07480F022AE82AF83A3A3EA
:201B3800A3A3A3E493FCA3E493FD74042EFEE43FFF7855E4F28E828F83E493FA7855C3E2AC
:201B58009A400122C006C0077855E275F002A42CF582ED35F0F583E493FAA3E493FF7856A4
:201B780074092AF2E43F08F27526008A828F83A3A3A3A3A3E493FF7850E2B507028007D07A
:201B980007D006021C87D007D0067856E2F52708E2F528C004C005852782852883E493FAD3
:201BB800A3E493FD8A828D83A3E493F5297404B529028006D005D004804AD005D0048527FC
:201BD80082852883E493F52AA3E493F52B852A82852B83A3A3E493FA7853E2B50214852A29
:201BF80082852B83A3A3A3E493FA7854E2B5020280067858E4F2800578587401F27858E2BD
:201C1800F526804D7405B52948E5266044C004C005852782852883E493FAA3E493FD8A82FB
:201C38008D83A3A3E493FD740F5DFC530580E423CDC423541F6DCD541FCD6DCD30E40244D2
:201C5800E0FA90E683ED4CF0E043E020F0D005D00474022527F527E43528F52885278285C5
:181C78002883E493FAA3E493FB4A6003021BAB7855E22401F2021B4D7E
:041F81000403090448
:011C90003221
:011C91003220
:011C9200321F
:201C9300AE82AF837D007C00785AE2235401FB70357859E225E0F208E233F27859C3E2F5E6
:201CB300F0EE95F008E2F5F0EF95F050147859E2F5F008E2C313C5F01318F2C5F008F280AE
:201CD300050C8C0580C27859C3E2F5F0EE95F008E2F5F0EF95F0400E7859D3E29EF4B3FEE5
:201CF300B308E29FF4FF7859E2F5F008E2C313C5F01318F2C5F008F28D041DEC70C88E82E7
:031D13008F832299
:011D1600329A
:2000A0007860E84400600A790075923EE4F309D8FC7804E84400600C7901903E60E4F0A32D
:0400C000D8FCD9FA95
:011D17003299
:011D18003298
:011D19003297
:0A1D1A0090E6A07480F075820122AB
:201D2400AA82AB83785BE2FC08E2FD785DE2FE08E2FFEE60010FEF601775AF078A9B8B9AD6
:111D44008C9E8D9D90E67CE090E67BF0DEF6DFF422BE
:011D5500325B
:011D5600325A
:011D57003259
:011D58003258
:011D59003257
:011D5A003256
:011D5B003255
:011D5C003254
:011D5D003253
:011D5E003252
:011D5F003251
:1D1D600090E7407850E2F090E6B57401F090E68AE4F090E68B04F090E6A003F02291
:011D7D003233
:011D7E003232
:011D7F003231
:011D80003230
:201D8100E583700BE58224FA400122B4001122E5826003D5E0FD0075E0FED583F674F9D531
:201DA100E0FD22C007C006C001C000AE82AF83EE2EF8EF33F9EE28FEEF39FF90E600E0F8FB
:201DC100794C20E416C3EF13CE13CEFF795AE820E309C3EF13CE13CEFF7963E58124FAF81E
:201DE100E926C313C313F9C3EE99F582EF9400F583D000D001D006D007500122021D81749D
:201E010011C0E0121DA4158122C007C006AE82AF837411C0E0EE4F600D1EBEFF011F900339
:0D1E2100E8121DA480EF1581D006D0072225
:011E2E003281
:02006900E4733E
:011E2F003280
:121E3000AF827851EFF2785F7952E2F3903E640218A85A
:011E4200326D
:011E4300326C
:011E4400326B
:011E4500326A
:201E4600E582FF6003BF01167850EFF2785374FFF27854F2903E64121B32758201227582A4
:021E6600002258
:011E68003247
:0D006B0075812B121E8EE582600302006677
:1C1E690020F71430F6148883A88220F507E6A88375830022E280F7E49322E02288
:011E8500322A
:011E86003229
:011E87003228
:011E88003227
:011E89003226
:011E8A003225
:011E8B003224
:011E8C003223
:011E8D003222
:041E8E007582002237
:011E9200321D
:011E9300321C
:00000001FF
