:04000000020059326F
:01000B0032C2
:0100130032BA
:01001B0032B2
:0100230032AA
:01002B0032A2
:01003300329A
:01003B003292
:03004300023F0079
:01004B003282
:03005300023F0069
:0300C400020056E1
:030056000200C7DE
:2000C700A280E433FF8FF005F07401800225E0D5F0FBFFA281E433FE8EF005F07401800210
:2000E70025E0D5F0FB4F42B290E60BE4F0D280C202E4F513F514F515F516C201751200C270
:2001070000E4F510F51190E680E043E00AF09005DC1209FE90E680E053E0F7F090E600E026
:2001270054E74410F090E601E043E040F090E100E4F5F0120900D2E890E668E043E008F0A7
:2001470090E65CE043E001F090E65CE043E002F090E65CE043E020F090E65CE043E010F051
:2001670090E61274A2F00000000090E61474E2F00000000090E611E053E07FF00000000011
:2001870090E610E053E07FF00000000090E613E053E07FF00000000090E615E053E07FF038
:2001A7000000000090E6917480F00000000090E6917480F0D2AF74BDC0E07412C0E07480F6
:2001C700C0E0120A78158115811581D28130011A74D6C0E07412C0E07480C0E0120A781537
:2001E70081158115811204CEC201E5AA20E0DE74E8C0E07412C0E07480C0E0120A78158157
:2002070015811581E5AA20E5C474FFC0E07412C0E07480C0E0120A7815811581158190E6BA
:2002270090E0FE7F0090E691E0FD7C004FF510EC4EF5117E007F00C3EE9510EF9511501B83
:200247008E0474F82FFD8E8274F02FF583E0FB8C828D83F00EBE00DF0F80DC90E698E5114F
:20026700F00000000090E699E510F090E6917480F00201D475820022AF82BFB15190E6BA96
:20028700E0F582C0071205ECAD82AE83E0FC7B00C006C005C004C0037417C0E07413C0E01B
:2002A7007480C0E0120A78E58124FBF581D005D006D007ED4E60178D828E83E090E740F039
:2002C70090E68AE4F090E68B04F0758201227E00C007C0067420C0E07413C0E07480C0E03A
:2002E700120A78E58124FBF58175820022AF82C0077448C0E07413C0E07480C0E0120A78AC
:20030700158115811581D007EF7014AD17AE18AF198D828E838FF0E41208CE75820122757E
:20032700820022AF82AD1A7E008F037C00C007C005C006C003C0047457C0E07413C0E074AF
:2003470080C0E0120A78E58124F9F581D007EF7065E51A706190E6837402F07422F074160F
:20036700F07436F090E6047480F00000000090E6047482F00000000090E604E4F0000000E0
:200387000090E6917480F00000000090E6917480F00000000090E6047480F0000000009092
:2003A700E6047486F00000000090E604E4F000000000758201227582002275820122AF8296
:2003C700BF01067E017F0080047E007F008E8222C0E0C082C083D2015391EF90E65D74018C
:2003E700F0D083D082D0E032C0E0C082C083C0D075D008903C00E02401F0A3E03400F09085
:200407003C00E0FEA3E0FFBE4015BF1F12B203300304C2808002D280903C00E4F0A3F053AE
:2004270091EF90E65D7402F0D0D0D083D082D0E032C021C0E0C0F0C082C083C007C006C0D2
:2004470005C004C003C002C001C000C0D075D0007582001207CC5391EF90E65D7410F0D02B
:20046700D0D000D001D002D003D004D005D006D007D083D082D0F0D0E0D02132C021C0E050
:20048700C0F0C082C083C007C006C005C004C003C002C001C000C0D075D00075820112071E
:2004A700CC5391EF90E65D7420F0D0D0D000D001D002D003D004D005D006D007D083D0825E
:0704C700D0F0D0E0D021329B
:2012BD00446F6E6520696E697469616C697A696E672073747566660A0048616E646C6520A2
:2012DD007365747570646174610A00657032206F757420726563656976656420646174617C
:2012FD000A0053656E64696E67206461746120746F2065703620696E0A006570202530329A
:20131D00780A004E65656420746F20696D706C656D656E742076656E646F7220636F6D6D4A
:20133D00616E643A20253032780A0047657420496E746572666163650A0053657420696EFC
:17135D007465726661636520256420746F20616C743A2025640A00A5
:02137F0000006C
:203E000012010002FFFFFF40B40404100100010200010A060002FFFFFF4001000902200004
:203E200001010080320904000002FFFFFF03070502020002000705860200020009022000EC
:203E400001010080320904000002FFFFFF0307050202400000070586024000000403090467
:203E600016034200490050004D00450044002E0050002E0054003403420069006F006C00BB
:203E80006F0067006900630061006C00200053006100660065007400790020004300610063
:183EA000620069006E00650074000C0369004600610063006500000011
:06008800E478FFF6D8FD4C
:1200B20075230075240075253C75263E75271C75283EC9
:2004CE0090E6B9E0FF24F450030205CEEF240A83F582EF241083F583E4730015CE2ACECE8B
:2004EE003FCE4F667DB0050505050505050505050505120644E58260030205E390E6A0E0BD
:20050E0043E001F00205E31206D8E58260030205E390E6A0E043E001F00205E3120747E5F2
:20052E008260030205E390E6A0E043E001F00205E312027BE58260030205E31207F7020590
:20054E00E31203C1AF8290E740EFF090E68AE4F090E68B04F00205E390E6BAE0F5821203BE
:20056E00C5E582707090E6A0E043E001F0806690E6BCE0FF7517227518007519408F821234
:20058E0002F4E582700A90E6A0E043E001F0804590E740E522F090E68AE4F090E68B04F030
:2005AE00803390E6BCE0FF90E6BAE0F51A8F8212032AE582701F90E6A0E043E001F0801565
:2005CE0090E6B9E0F58212027FE582700890E6A0E043E001F090E6A0E043E080F022AF822F
:2005EE00747F5FFE24F75003020640EE240A83F582EE240D83F583E473191D30403440380E
:20060E00403C06060606060606060690E6A022EF30E7067EA27FE680047EA17FE68E828FAA
:20062E00832290E6A32290E6A42290E6A52290E6A6229000002290E6B8E0FFBF8002802273
:20064E00BF81028008BF820280370206D090E740E4F090E741F090E68AF090E68B7402F066
:20066E008064E52425E0FFE523420790E740EFF090E741E4F090E68AF090E68B7402F08031
:20068E004590E6BCE0F5821205ECAE82AF838E048F05EE4F7003F582228C828D83E0FC3080
:2006AE00E0067E017F0080047E007F0090E740EEF090E741E4F090E68AF090E68B7402F04F
:2006CE008004758200227582012290E6B8E0FF6005BF0258801B90E6BAE0FFBF01057524C2
:2006EE0000805290E6BAE0FFBF060280487582002290E6BAE0703190E6BCE0F5821205EC26
:20070E00AE82AF83E0FD5305FE8E828F83EDF090E6BCE0FF30E70343071053071F90E68340
:20072E00EFF074204FF0800D7582002290E6B9E0F58202027F7582012290E6B8E0FF6005BE
:20074E00BF026E802690E6BAE0FFBF02030207C890E6BAE0FFBF0105752401805D90E6BA97
:20076E00E0FFBF060280537582002290E6BAE0703C90E6BCE0F5821205ECAE82AF83EE4FF2
:20078E007003F582228E828F83E0FD4305018E828F83EDF090E6BCE0FF30E7034307105320
:2007AE00071F90E683EFF074204FF0800D7582002290E6B9E0F58202027F75820122AF8260
:2007CE00D20410AF02C204EF600E75251C75263E75273C75283E800C75253C75263E752738
:2007EE001C75283EA20492AF2290E6BBE0FFBF01028019BF02028024BF0302802CBF0603E1
:20080E000208A8BF07030208B80208C57E007F3E90E6B3EFF090E6B47400F02290E6B3E5BD
:20082E0026F090E6B4E525F0227D5C7E3E7F8090E6BAE0F5587B00EBB5580280430B8D008D
:20084E008E018F028D828E838FF01211BD28F8E439F9880589068A0774012DF9E43EFA8FC2
:20086E000489828A838CF01211BDF9B9030280067D007E007F00ED4E6006C3E5589B50B7F8
:20088E00ED4E600D8E0490E6B3ECF090E6B4EDF02290E6A0E043E001F0227E127F3E90E6F3
:2008AE00B3EFF090E6B47412F02290E6B3E528F090E6B4E527F02290E6A0E043E001F0223C
:200066007902E94400601B7A0190137F780075923CE493F2A308B800020592D9F4DAF2758C
:0200860092FFE7
:1B08CE0020F71130F6138883A88220F509F6A8837583002280FEF280F5F02229
:203F00000203D7000203EF0002124B000212B5000204380002048300021248000208F40088
:203F20000208F6000208F7000208F8000208FB000212BB000212BC000208E9000208EB00F2
:203F400002124D000208F400021247000212490002124A0002124C0002124E000212B40062
:203F6000021187000208F4000208F4000208F4000208F5000208F9000208FC000208FE009D
:203F80000208FA000208FD000208FF00020A4F000208EC000208EE000208F0000208F200CE
:183FA0000208ED000208EF000208F1000208F3000208EA000212BA005F
:0108E90032DC
:0108EA0032DB
:0108EB0032DA
:0108EC0032D9
:0108ED0032D8
:20008E007800E84400600A790075923CE4F309D8FC7800E84400600C7900903C00E4F0A308
:0400AE00D8FCD9FAA7
:0108EE0032D7
:0108EF0032D6
:0108F00032D5
:0108F10032D4
:0108F20032D3
:0108F30032D2
:0108F40032D1
:0108F50032D0
:0108F60032CF
:0108F70032CE
:0108F80032CD
:0108F90032CC
:0108FA0032CB
:0108FB0032CA
:0108FC0032C9
:0108FD0032C8
:0108FE0032C7
:0108FF0032C6
:20090000D310AF01C3C0D085821B85831C85F01DF51E90E600E05418C423541F70057A01FA
:20092000FB801C90E600E05418C423541FF9B901067802790080047804790088028903D2F7
:20094000CDD2CC8A58755900755A00755B009071B075F00BE4C0021211D9851B58851C5928
:20096000851D5A851E5B12124FAC82AD83AEF0FFD0020CBC00090DBD00050EBE00010FEFD2
:20098000C313EE13ED13FDEC13FC74FFC39CFC74FF9DFD8DCBEA60067E017F0080047E0005
:2009A0007F00EE2CF5CAD2CAC29FD29EC29DD29C438780D299D0D092AF223098FDAF99C21E
:2009C000987E008F828E8322AF8210990280FB8F9922AF82BF0A0A75820DC0071209C8D09A
:1E09E000078F82C0071209C8D007BF0D0A75820AC0071209C8D0077E008F828E832246
:2009FE00AE82AF8390E600E05418C423541F70057CB1FD801C90E600E05418C423541FFB09
:200A1E00BB01067A617B0180047AC27B028A048B058C588D59E55824FFFAE55934FFFB8A2A
:110A3E00588B59EA4B70EE1EBEFF011FEE4F70E1222D
:010A4F003274
:200A5000C0578581577E008E831209D2D0572285823985833A85F03BE4F536F537F538852E
:200A70001F3C900A50020B39C057E581F55724FBFF8F3CE4F536F537F538E55724FBF886E8
:100A90003908863A08863B900A50120B39D0572203
:200AA000AF82C02CC02DC02E120AAD8007C02AC02B8F82221581158115810534E4B534021C
:200AC000053522AF8274302FFF24C6500B74072FFFE52960034307208F82020AA0E582FFCB
:200AE000C4540FF582C007120AC3D007740F5FF582020AC3858258AB2FAC30AD31AE32AA36
:200B000033755A208A07EF2FF559EE2354014559FAEB2BFBEC33FCED33FDEE33FEC3EA950E
:200B2000584008EAC39558FA430301D55AD68B2F8C308D318E328A332285822A85832B8579
:200B4000362C85372D85382EE4F534F535AD39AE3AAF3B8D828E838FF01211BDFC74012D53
:200B6000F539E43EF53A8F3BECFF7003021180BF25028003021178E4F53DF53EF53FF54095
:200B8000F541F542F543F544F546F553F5547547FF7548FF85394D853A4E853B4F854D82B9
:200BA000854E83854FF01211BDF550A385824D85834E854D39854E3A854F3B7425B55008DC
:200BC000855082120AA0808574D025505068E55024C6406274FFB54736B548338553588541
:200BE000545990000A1211A0858251858352AA507E00EA2551FAEE3552FEEA24D0F553EEE0
:200C000034FFF554E55345547093753E01808E85475885485990000A1211A0AE82AB83AA13
:200C2000507D00EA2EFEED3BFBEE24D0F547EB34FFF548020B9D742EB5501574FFB547055B
:200C4000B548028003020B9DE4F547F548020B9D749F2550500EE550248540085350DF755E
:200C6000290180037529007420B55003020D03742BB55003020CFD742DB550028079744272
:200C8000B55003020D097443B55003020D157444B55003020E997446B55003020EB07448AA
:200CA000B55003020B9D7449B55003020E99744AB55003020B9D744CB550028052744FB593
:200CC0005003020EA17450B55003020E2E7453B5500280627454B55003020B9D7455B5500E
:200CE00003020EA67458B55003020EAB745AB55003020B9D020EB5753D01020B9D753F0155
:200D0000020B9D754001020B9D754201020B9D754301020B9DE542600AE53C14F9893C87F9
:200D200006800BE53C24FEFB8B3C8B0187068E82120AA0020EC3E53C24FDFE8E3C8E018745
:200D40000209870309870619198A2F8B308E318A828B838EF012118885824D85834E74FFA3
:200D6000B54709B54806854D47854E48E53D7037C3E54D9553E54E9554502CE553C3954D1C
:200D8000F551E554954EF552AA51AE52155174FFB551021552EA4E6008758220120AA08074
:200DA000E7855153855254AB47AE48852F828530838531F01211BDFA8A4B6034C3E49B7403
:200DC000808EF063F08095F050261BBBFF011E854B82C006C003120AA0D003D006AA2FAC8E
:200DE00030AD310ABA00010C8A2F8C308D3180BBE53D7003020EC3C3E54D9553E54E955445
:200E00004003020EC3E553C3954DF551E554954EF552AA51AE52155174FFB551021552EA09
:200E20004E7003020EBD758220120AA080E4E53C24FDFE8E3C8E0187020987030987061989
:200E4000198A2F8B308E31AE31BE800040047B438014BE600040047B50800BBE4000400499
:200E60007B4980027B588B82C003120AA075823A120AA0758230120AA0758278120AA0D002
:200E800003BB4902800BBB50028006853082120ADD852F82120ADD802A75410175460A8026
:200EA00022754608801D75460A80187546108013754401800E855082120AA08006855153EB
:200EC000855254E5446060E53C24FCFE8E3C8E0187530987540987550987561919198553BA
:200EE0002F855430855531855632752F74753013753180852F5385305485315574012553A4
:200F0000FAE43554FBAE558A2F8B308E318553828554838555F01211BDFEFB7003020B4D13
:200F20008B82120AA080CCE5467003020B4DE542602BE53C14F9893C87068E027B007D00EA
:200F40007E008A2F8B308D318E32E5417064AA2FFBFDFE8A2F8B308D318E328055E5436009
:200F600021E53C24FCFE8E3C8E0187020987030987050987061919198A2F8B308D318E3234
:200F80008030E53C24FEFE8E3C8E01870309870619EEFA3395E0FDFE8B2F8A308D318E3251
:200FA000E541700EAA2FAB30FDFE8A2F8B308D318E32E5416023E53230E71BC3E4952FFB94
:200FC000E49530FCE49531FDE49532FE8B2F8C308D318E32800375410075450179617D00DD
:200FE0007E00753300854682C006C005C001120AF4D001D005D006E5457014E533C454F0D8
:20100000FCE533C4540F4204E7FB4CF7198002A7330DBD00010EE545B40100E433F545E5C7
:201020002F45304531453270B9894C8D498E4AE55345547005755301F554E53E702DE53D39
:201040007029AA53AB54AC490C7E00C3EC9AEE9B5015758220C003C002120AA0D002D00348
:201060001ABAFF011B80DF8A538B54E541601175822D120AA0155374FFB553021554802EF3
:20108000E549454A6028E53F601175822B120AA0155374FFB5530215548013E540600F75AE
:2010A0008220120AA0155374FFB553021554E53D7033AD53AE548D038E041DBDFF011EC3E0
:2010C000E5499BE54A9C503EE53E60067B307C0080047B207C008B82C006C005120AA0D07F
:2010E00005D00680D1C3E5499553E54A9554500FE553C39549F553E554954AF554800BE483
:20110000F553F55480048D538E54A94CAD49AE4A8D028E041DBDFF011EEA4C6030E545B458
:201120000100E433F545700A09E7C4540FFC8C3380078704740F5CF533853382C006C00533
:20114000C001120AC3D001D005D00680C3E53D7003020B4DAD53AE548D038E041DBDFF0143
:201160001EEB4C7003020B4D758220C006C005120AA0D005D00680E08F82120AA0020B4DBD
:0711800085348285358322CE
:0B1374003C4E4F20464C4F41543E00C1
:011187003235
:18118800AA82AB831211BD6003A380F8C3E5829AF582E5839BF58322BF
:1D11A000E5828558F0A4C582C0F08559F0A4D0F025F0C5838558F0A42583F5832221
:0D0059007581611212B6E582600302005647
:1C11BD0020F71430F6148883A88220F507E6A88375830022E280F7E49322E02241
:2011D900AAF0FBE5828558F0A4FCADF0E5838558F0A42DFDE435F0FEE5828559F0A42DFDE3
:2011F900E5F03EFEE433FFEA8558F0A42EFEE5F03FFFE5838559F0A42EFEE5F03FFFE58295
:20121900855AF0A42EFEE5F03FFFEB8558F0A42FFFEA8559F0A42FFFE583855AF0A42FFFE6
:0E123900E582855BF0A42F8EF08D838C8222DF
:011247003274
:011248003273
:011249003272
:01124A003271
:01124B003270
:01124C00326F
:01124D00326E
:01124E00326D
:20124F00FB7A20E4FCFDFEFFE5822582F582E58333F583E5F033F5F0EB33FB4017DAE980D8
:20126F0042E5822582F582E58333F583E5F033F5F0EB33FBEC33FCED33FDEE33FEEF33FF07
:20128F00EC9558ED9559EE955AEF955B4013EC9558FCED9559FDEE955AFEEF955BFF438251
:0512AF0001DABEEB2294
:0112B4003207
:0112B5003206
:0412B600758200221B
:0112BA003201
:0112BB003200
:0112BC0032FF
:00000001FF
