:0600000002006902048AFF
:03000B000204905C
:0300130002048C58
:03001B000204924A
:030023000204F9DB
:03002B0002049438
:030033000204962E
:03003B000204FAC2
:03004300020100B7
:03004B0002048B21
:03005300020100A7
:03005B0002048D0F
:0300630002048E06
:0300C200020066D3
:030066000202D1C2
:2001BE00AE82AF83E0FDE4BD210104FC60328E828F83A3E0FBBB22288E828F83A3A3A3A33A
:2001DE00E0FAA3E0FB4A701874062EF582E43FF583E0FAA3E0FB4A700790E6A07480F022E8
:2001FE00BDA1648E828F83A3E0FDBD215A8E828F83A3A3A3A3E0FBA3E0FD4B704A74062E8F
:20021E00F582E43FF583E0FBA3E0FDBB0739BD003690E740E4F074C2A3F07401A3F0E4A382
:20023E00F090E744F090E745F090E7467408F090E6B57401F090E68AE4F090E68B7407F060
:20025E0090E6A07480F022EC60448E828F83A3E0FDBD203A8E828F83A3A3A3A3E0FCA3E00E
:20027E00FD4C702A74062EF582E43FF583E0FEA3E0FFBE0719BF001690E6B57401F090E6AA
:20029E008AE4F090E68BF090E6A07480F02290E6A07401F022C0E0C082C0837508015391B1
:2002BE00EF90E65B7401F090E659C4F0D083D082D0E03290E6007410F090E60B7403F041DE
:2002DE00DF90E6047480F090E61174B0F090E610E053E07FF090E61274A2F090E6A3E4F0A5
:2002FE0090E61474E2F090E6A5E4F090E613E053E07FF090E615E053E07FF090E6587410B7
:20031E00F090E65AC4F0612690E6047482F0612E90E6497482F0613690E6497482F0613E55
:20033E0090E6047486F0614690E604E4F07582011204FE7E007F00EE4F600302042490E6FD
:20035E00A3E030E20302042490E690E0FC7D0090E691E07A004205EA42048D068C077512D9
:20037E00007513F08E148F1590E000C007C00612045FD006D00790E691E4F07C007D00C3EB
:20039E00EC9EED9F40030204248C8274E02DF583E0FBFABA41009200402AEA24A592004064
:2003BE00238B017A0089828A83C007C006C005C0041204A8A982AA83D004D005D006D0075C
:2003DE00890380318B02BA610092004028EA2485920040218B017A0089828A83C007C006EF
:2003FE00C005C0041204D1A982AA83D004D005D006D00789038C8274E02DF583EBF00CBC8B
:20041E0000010D02039DEE4F7003020355E50870030203557512007513E08E148F1590F88D
:20043E0000C007C00612045FD006D00790E698EFF0815190E699EEF07E007F008F080203AA
:01045E005548
:200CFF001201000202000040B404138600000102000109040000010202000007058103087F
:200D1F00000A052400200104240200052406000109040100020A00000007050202000200DA
:200D3F0007058602000200090200000201008032110D210D260D2A0D1A0D2F0D380D3F0D94
:200D5F000000460D710D8B0DFF0C000001610D02630D7768697465717561726B4077686952
:200D7F007465717561726B2E6F726700465832207365726965732073657269616C20696ECF
:100D9F0074657266616365206578616D706C65005E
:20045F00AA82AB83AC12AD13AE14AF15EE60010FEF601775AF078A9B8B9A8C9E8D9D90E61C
:0B047F007CE090E67BF0DEF6DFF4226C
:06009800E478FFF6D8FD3C
:01048A00323F
:01048B00323E
:01048C00323D
:200076007900E94400601B7A00900DB3780075923EE493F2A308B800020592D9F4DAF2754F
:0200960092FFD7
:01048D00323C
:01048E00323B
:030100000205A74E
:030104000204FBF7
:0301080002049C52
:03010C000204D01A
:030110000204FDE9
:03011400020BC813
:0301180002049945
:03011C000201B825
:030120000204A234
:03012400020BC605
:030128000204A32B
:03012C00020BC7FC
:03013000020BF3CC
:0301340002048F33
:030138000204912D
:03013C0002049525
:030140000202B305
:030144000201B8FD
:03014800020BC0E7
:03014C00020BC1E2
:03015000020BC2DD
:03015400020BC3D8
:03015800020BC4D3
:03015C00020BC5CE
:030160000204FC9A
:030164000201B8DD
:030168000201B8D9
:03016C000201B8D5
:030170000204A1E5
:030174000204A4DE
:030178000204A6D8
:03017C000204CEAC
:030180000204A5D1
:030184000204A7CB
:030188000204CF9F
:03018C000204F872
:03019000020497CF
:0301940002049AC8
:0301980002049DC1
:03019C0002049FBB
:0301A000020498BE
:0301A40002049BB7
:0301A80002049EB0
:0301AC000204A0AA
:0301B000020493B3
:0301B400020BE655
:0101B8003214
:01048F00323A
:010490003239
:010491003238
:010492003237
:010493003236
:010494003235
:010495003234
:010496003233
:010497003232
:010498003231
:20009E007800E84400600A790075923EE4F309D8FC7800E84400600C7900903E00E4F0A3F4
:0400BE00D8FCD9FA97
:010499003230
:01049A00322F
:01049B00322E
:01049C00322D
:01049D00322C
:01049E00322B
:01049F00322A
:0104A0003229
:0104A1003228
:0104A2003227
:0104A3003226
:0104A4003225
:0104A5003224
:0104A6003223
:0104A7003222
:2004A800AE82AF838E05BD410092014010ED24A59201400974202EFCE43FFD80048E048F49
:0604C800058C828D8322E9
:0104CE0032FB
:0104CF0032FA
:0104D00032F9
:2004D100AE82AF838E05BD610092024011ED24859202400A74E02EFC74FF3FFD80048E045C
:0704F1008F058C828D832230
:0104F80032D1
:0104F90032D0
:0104FA0032CF
:0104FB0032CE
:0104FC0032CD
:0104FD0032CC
:0D006900758121120BE2E582600302006642
:2004FE00AF82750A00750B00D2E890E668E043E008F090E65CE043E001F090E65D7401F01D
:20051E00D2AF90E680E020E10890E680E043E002F0EF600E90E680E043E008F090000A1278
:20053E000CBD90E680E053E0F7F022AF82BF00028037BF01028036BF02028039BF040280E0
:20055E0038BF06028037BF08028036BF80028019BF8102801CBF8202801BBF8402801ABF14
:20057E0086028019BF881E801890E6A02290E6A12290E6A22290E6A32290E6A42290E6A502
:20059E002290E6A62290000022C021C0E0C0F0C082C083C007C006C005C004C003C002C01A
:2005BE0001C000C0D075D000C08675860090E6B8E0FFE4BF800104FE601990E6B9E0FDBDD1
:2005DE00061190E6BAE0FCA3E0F5828C11120BE702081EEF702790E6B9E0FDBD091F90E62A
:2005FE00BAE0F582120CE1E582600990E6A07480F002081E90E6A07401F002081EEE600EDC
:20061E0090E6B9E0FDBD0806120C1802081E8F05BD012E90E6B9E0FDBD0B2690E6BCE0FDFE
:20063E0090E6BAE0F5108D82120BC9E582600990E6A07480F002081E90E6A07401F002081B
:20065E001EE4BF810104FD601490E6B9E0FCBC0A0C90E6BCE0F582120BFE02081EEF703686
:20067E0090E6B9E0FCBC032E90E6BAE0FBA3E0FCBB010FBC000C750A0190E6A07480F002CB
:20069E00081EBB0205BC0002800302081E90E6A07480F002081EEE603290E6B9E0702CAEF0
:2006BE0009E50A25E0FC420690E740EEF090E741E4F090E6B504F090E68AE4F090E68B7452
:2006DE0002F090E6A07480F002081EED602890E6B9E0702290E740E4F090E741F090E6B574
:2006FE0004F090E68AE4F090E68B7402F090E6A07480F002081EBF020280030207C390E603
:20071E00B9E0FEBE03028008BE010280030207C390E6BAE0FDA3E0FE4D600302081E90E6ED
:20073E00BCE0F582120549AD82AE83ED4E700302081E90E6B9E0FCBC03188D828E83E0FC14
:20075E004304018D828E83ECF090E6A07480F002081E90E6BCE0F582C006C005120BF4E50B
:20077E0082D005D006700302081E8D828E83E0FC5304FE8D828E83ECF090E6BCE0FDA3E0B4
:20079E008D0453040F530580E4C423CDC423541F6DCD541FCD6DCDFE90E683ED4CF0E04383
:2007BE00E020F0805BBF825290E6B9E0704C90E6BCE0F582120549AE82AF838E048F05EE93
:2007DE004F603D8C828D83E0FC5304017F00EC4FB40100B39203E433FF90E740F090E74191
:2007FE00E4F090E6B504F090E68AE4F090E68B7402F090E6A07480F0800690E6B81201BE2E
:20081E005391EF90E65D7401F0D086D0D0D000D001D002D003D004D005D006D007D083D0FA
:20083E0082D0F0D0E0D02132AE82AF837401B50C28E50D70248E828F83E493FCA3E493FD93
:20085E008C128D138C828D83E493FC8C1475150090E00012045F020A8E7406B50C38E50D9D
:20087E0070348E828F83A3A3E493FCA3E493FD4C700790E6A07401F0228C028D038A128B1F
:20089E00138C828D83E493FC8C1475150090E00012045F020A8E7402B50C0280030209BA6C
:2008BE008E828F83A3A3A3A3E493FDC3E50D9D40030209BA8E828F83A3A3A3A3A3E493FCDA
:2008DE00A3E493FDE50D75F002A42CF582ED35F0F583E493FCA3E493FD74092CFAE43DFB70
:2008FE008C008D01881289138C828D83E493F9891475150090E000C005C004C003C0021245
:20091E00045FD002D003D004D0058C828D83E4932400FCE434E0FD8C0E8D0F8A828B83E42A
:20093E0093F8A3E493F98812891388828983E493F88814751500850E82850F83C005C00465
:20095E00C003C00212045FD002D003D004D0058A828B83E493F8A3E493F988828983E49308
:20097E002CFCE43DFD74022AFAE43BFB8A828B83E493F8A3E493F948709D90E002E0FAA37F
:20099E00E0FB4A6003020A8EECC39400FCED94E0FD90E002ECF0EDA3F0020A8E7403B50CDA
:2009BE000474018001E4FD601EE50D701A7512AF75130D900DAFE493FC8C1475150090E020
:2009DE000012045F020A8EED7003020A87AC0D7D00EC24FFFAED34FFFB74072EF582E43F5A
:2009FE00F583E493F87900C3EA98EB648089F063F08095F0507374082EF582E43FF583E431
:200A1E0093FEA3E493FF1CBCFF011DEC2CFCED33FDEC2EF582ED3FF583E493FEA3E493FF25
:200A3E0090E0007402F090E00104F074012401FCE434E0FD8E828F83E493FB60330EBE00DF
:200A5E00010F8C828D83EBF074012CFAE43DFB8A828B83E4F0042AFCE43BFD90E000E0FB39
:200A7E000B0B90E000EBF080CB90E6A07401F0227E007FE090E6B57401F090E6B3EFF0900A
:200A9E00E6B4EEF090E6A07480F022AE82AF83A3A3A3A3A3E493FCA3E493FD74042EFEE401
:200ABE003FFF7514008E828F83E493FAC3E5149A400122E51475F002A42CF582ED35F0F557
:200ADE0083E493F515A3E493F51674092515F8E43516FA751800851582851683A3A3A3A3A4
:200AFE00A3E493F9B50B028003020BBB880189828A83E493F8A3E493FB88828B83A3E49361
:200B1E00FBBB043989828A83E493F519A3E493F51A851982851A83A3A3E493F8B5121185AA
:200B3E001982851A83A3A3A3E493F8B51302800575170080037517018517188048BB054516
:200B5E00E5186041C004C00589828A83E493F8A3E493FB88828B83A3A3E493FB740F5BF80E
:200B7E00530380E423CBC423541F6BCB541FCB6BCB30E40244E090E683EB48F0E043E02032
:200B9E00F0D005D004740229F9E43AFA89828A83E493F8A3E493FB486003020B0C05140273
:020BBE000AC368
:040DAF00040309042C
:010BC0003202
:010BC1003201
:010BC2003200
:010BC30032FF
:010BC40032FE
:010BC50032FD
:010BC60032FC
:010BC70032FB
:010BC80032FA
:190BC900AF82E510700F8F12851013900D67120AA9758201227582002229
:040BE20075820022F6
:010BE60032DC
:0C0BE70085820C85110D900D67020846F8
:010BF30032CF
:0A0BF40090E6A07480F075820122E3
:1A0BFE0090E740E4F090E6B504F090E68AE4F090E68B04F090E6A003F0223F
:1C0C180090E740E50BF090E6B57401F090E68AE4F090E68B04F090E6A003F022A5
:200C3400E583700BE58224FA400122B4001122E5826003D5E0FD0075E0FED583F674F9D58F
:200C5400E0FD22C007C006C001C000AE82AF83EE2EF8EF33F9EE28FEEF39FF90E600E0F859
:200C7400794C20E416C3EF13CE13CEFF795AE820E309C3EF13CE13CEFF7963E58124FAF87C
:200C9400E926C313C313F9C3EE99F582EF9400F583D000D001D006D007500122020C347459
:200CB40011C0E0120C57158122C007C006AE82AF837411C0E0EE4F600D1EBEFF011F9003F6
:0D0CD400E8120C5780EF1581D006D00722E2
:1E0CE100E582FF6003BF01128F0B7512FF7513FF900D67120AA97582012275820022B7
:00000001FF
