:03000000020006F5
:20005F00750800750988750A00750B98750C00750DA8750E00750FB87510007511807512EB
:13007F00007513907514007515A07516007517B0020003D7
:0300030002009266
:200092007F00EF2F2408F9878209878319E0F518900032C0071200C2D007BF07067D007E6F
:1000B2000080098F040CECFD3395E0FE8D0780D2A1
:06003500E478FFF6D8FD9F
:200013007900E94400601B7A0090011E780075923CE493F2A308B800020592D9F4DAF27555
:0200330092FF3A
:20003B007800E84400600A790075923CE4F309D8FC7800E84400600C7900903C00E4F0A35B
:04005B00D8FCD9FAFA
:2000C200AE82AF8390E600E05418C423541F70057CB1FD801C90E600E05418C423541FFB4E
:2000E200BB01067A617B0180047AC27B028A048B058C198D1AE51924FFFAE51A34FFFB8A6C
:18010200198B1AEA4B70EEEE24FFFAEF34FFFB8A068B07EA4B70DA22A9
:0D00060075811A12011AE5826003020003E1
:04011A0075820022C8
:00000001FF
