:0400000002002132A7
:01000B0032C2
:0100130032BA
:03001B000200865A
:0C007A007508007509C8750A0002001E18
:03001E00020108D4
:20008600C2AFC0E0C0F0C007C006C005C0D075D000E5087044E50A601B759288E2A281E4EF
:2000A60033FF8FF005F07401800225E0D5F0FBFF4280801A759280E2A281E433FF8FF00557
:2000C600F07401800225E0D5F0FBF4FF5280E50AB401009200E433F50AC3E508950992007D
:2000E60040067E007F008009AD080DEDFE3395E0FF8E08D0D0D005D006D007D0F0D0E0D2E0
:20010600AF3290E600E054E74410F090E680E053E0FDF0D2AF90E100E4F5F0120163758DFA
:2001260000758B00D2ABD28EA280E433FF8FF005F07401800225E0D5F0FBFFA281E433FE3D
:1D0146008EF005F07401800225E0D5F0FBFE4F42B27592B0E212021D12023580F8A1
:06005000E478FFF6D8FD84
:20002E007900E94400601B7A00900338780075923CE493F2A308B800020592D9F4DAF2751E
:02004E0092FF1F
:20016300D310AF01C3C0D085820B85830C85F00DF50E90E600E05418C423541F70057A01DF
:20018300FB801C90E600E05418C423541FF9B901067802790080047804790088028903D29C
:2001A300CDD2CC8A0F7510007511007512009071B075F00BE4C002120261850B0F850C102A
:2001C300850D11850E121202CFAC82AD83AEF0FFD0020CBC00090DBD00050EBE00010FEFB9
:2001E300C313EE13ED13FDEC13FC74FFC39CFC74FF9DFD8DCBEA60067E017F0080047E00AA
:200203007F00EE2CF5CAD2CAC29FD29EC29DD29C438780D299D0D092AF223098FDAF99C2C2
:20022300987E008F828E8322AF8210990280FB8F9922AF82BF0A0A75820DC00712022BD0E2
:1E024300078F82C00712022BD007BF0D0A75820AC00712022BD0077E008F828E832232
:20026100AAF0FBE582850FF0A4FCADF0E583850FF0A42DFDE435F0FEE5828510F0A42DFD45
:20028100E5F03EFEE433FFEA850FF0A42EFEE5F03FFFE5838510F0A42EFEE5F03FFFE582AE
:2002A1008511F0A42EFEE5F03FFFEB850FF0A42FFFEA8510F0A42FFFE5838511F0A42FFF92
:0E02C100E5828512F0A42F8EF08D838C8222B0
:200056007800E84400600A790075923CE4F309D8FC7800E84400600C7900903C00E4F0A340
:04007600D8FCD9FADF
:2002CF00FB7A20E4FCFDFEFFE5822582F582E58333F583E5F033F5F0EB33FB4017DAE98068
:2002EF0042E5822582F582E58333F583E5F033F5F0EB33FBEC33FCED33FDEE33FEEF33FF97
:20030F00EC950FED9510EE9511EF95124013EC950FFCED9510FDEE9511FEEF9512FF438228
:05032F0001DABEEB2223
:0D002100758120120334E582600302001E89
:0403340075820022AC
:00000001FF
