:04000000020059326F
:01000B0032C2
:0100130032BA
:01001B0032B2
:0100230032AA
:01002B0032A2
:01003300329A
:01003B003292
:03004300023F0079
:01004B003282
:03005300023F0069
:0300C400020056E1
:030056000201FAAA
:2000C700D2E890E668E043E008F090E65CE043E001F090E65CE043E002F090E65CE043E024
:2000E70020F090E65CE043E010F090E6007412F090E60B7403F090E60174E3F00000000082
:2001070090E60274E8F00000000090E670E043E080F00000000090E611E053E07FF00000B2
:20012700000090E610E053E07FF00000000090E61274A2F00000000090E6137402F0000033
:20014700000090E61474E2F00000000090E6157402F00000000090E6047480F00000000079
:2001670090E6047402F00000000090E6047404F00000000090E6047406F00000000090E65C
:20018700047408F00000000090E604E4F00000000090E6497482F00000000090E649748240
:2001A700F00000000090E6497482F00000000090E6497482F00000000090E618E4F000009C
:2001C700000090E6187411F00000000090E61AE4F00000000090E61A7409F0000000009024
:2001E700E6247402F00000000090E625E4F00000000022C20090E680E043E00AF09005DCD1
:200207001207BB90E680E053E0F7F01200C7D2AF3000FD120389C20080F6AF82BF0602803E
:2002270005BFB13280047582012290E6BAE0F5821204A7AE82AF838E048F05EE4F60178C66
:20024700828D83E090E740F090E68AE4F090E68B04F07582012275820022E5827014AD17D3
:20026700AE18AF198D828E838FF0E41207897582012275820022AF8290E6837402F074226B
:20028700F07416F07436F090E6497482F0F0F0F0EF7004E5176004C2018002D201A201E47C
:2002A70033F582227582012275820022AF82BF01067E017F0080047E007F008E8222C0E0F0
:2002C700C082C083D2005391EF90E65D7401F0D083D082D0E032C0E0C082C0835391EF90A6
:2002E700E65D7402F0D083D082D0E032C021C0E0C0F0C082C083C007C006C005C004C00338
:20030700C002C001C000C0D075D0007582001206875391EF90E65D7410F0D0D0D000D001CD
:20032700D002D003D004D005D006D007D083D082D0F0D0E0D02132C021C0E0C0F0C082C050
:2003470083C007C006C005C004C003C002C001C000C0D075D0007582011206875391EF9028
:20036700E65D7420F0D0D0D000D001D002D003D004D005D006D007D083D082D0F0D0E0D08E
:02038700213221
:203E000012010002FF000040B40413860100010200010A060002FF0000400100040A860210
:203E20000902200001010080320904000002FF0000030705020200020007058602000200EA
:203E40000902200001010080320904000002FFFFFF03070502024000000705860240000050
:203E6000040309040C0349004F004400650076000E035500530042004D004F004E000C0374
:0C3E80006900460061006300650000005E
:06008800E478FFF6D8FD4C
:1200B20075110075120075134075143E75152075163E2D
:2003890090E6B9E0FF24F45003020489EF240A83F582EF241083F583E473BBD089E58989B5
:2003A900FA890A21386B0303040304040304040404041204FFE582600302049E90E6A0E03E
:2003C90043E001F002049E120593E582600302049E90E6A0E043E001F002049E120602E597
:2003E90082600302049E90E6A0E043E001F002049E1202AFE582600302049E1206B20204BC
:200409009E1202ABAF8290E740EFF090E68AE4F090E68B04F002049E90E6BAE0F5821202A7
:20042900B3E582707090E6A0E043E001F0806690E6BCE0FF7517107518007519408F82129E
:200449000261E582700A90E6A0E043E001F0804590E740E510F090E68AE4F090E68B04F01B
:20046900803390E6BCE0FF90E6BAE0F5178F8212027DE582701F90E6A0E043E001F080155C
:2004890090E6B9E0F582120221E582700890E6A0E043E001F090E6A0E043E080F022AF82D3
:2004A900747F5FFE24F750030204FBEE240A83F582EE240D83F583E473D4D8EBFBEFFBF37E
:2004C900FBF704040404040404040490E6A022EF30E7067EA27FE680047EA17FE68E828F8D
:2004E900832290E6A32290E6A42290E6A52290E6A6229000002290E6B8E0FFBF80028022BA
:20050900BF81028008BF8202803702058B90E740E4F090E741F090E68AF090E68B7402F0F2
:200529008064E51225E0FFE511420790E740EFF090E741E4F090E68AF090E68B7402F0809B
:200549004590E6BCE0F5821204A7AE82AF838E048F05EE4F7003F582228C828D83E0FC300C
:20056900E0067E017F0080047E007F0090E740EEF090E741E4F090E68AF090E68B7402F095
:200589008004758200227582012290E6B8E0FF6005BF0258801B90E6BAE0FFBF010575121A
:2005A90000805290E6BAE0FFBF060280487582002290E6BAE0703190E6BCE0F5821204A7B2
:2005C900AE82AF83E0FD5305FE8E828F83EDF090E6BCE0FF30E70343071053071F90E68387
:2005E900EFF074204FF0800D7582002290E6B9E0F5820202217582012290E6B8E0FF600563
:20060900BF026E802690E6BAE0FFBF020302068390E6BAE0FFBF0105751201805D90E6BA35
:20062900E0FFBF060280537582002290E6BAE0703C90E6BCE0F5821204A7AE82AF83EE4F7E
:200649007003F582228E828F83E0FD4305018E828F83EDF090E6BCE0FF30E7034307105366
:20066900071F90E683EFF074204FF0800D7582002290E6B9E0F58202022175820122AF8204
:20068900D20210AF02C202EF600E75132075143E75154075163E800C75134075143E7515F4
:2006A9002075163EA20292AF2290E6BBE0FFBF01028019BF02028024BF0302802CBF060337
:2006C900020763BF07030207730207807E007F3E90E6B3EFF090E6B47400F02290E6B3E5D6
:2006E90014F090E6B4E513F0227D607E3E7F8090E6BAE0F5177B00EBB5170280430B8D0076
:200709008E018F028D828E838FF012080E28F8E439F9880589068A0774012DF9E43EFA8FC0
:200729000489828A838CF012080EF9B9030280067D007E007F00ED4E6006C3E5179B50B737
:20074900ED4E600D8E0490E6B3ECF090E6B4EDF02290E6A0E043E001F0227E127F3E90E639
:20076900B3EFF090E6B47412F02290E6B3E516F090E6B4E515F02290E6A0E043E001F022A6
:200066007900E94400601B7A0090083B780075923CE493F2A308B800020592D9F4DAF275DE
:0200860092FFE7
:1B07890020F71130F6138883A88220F509F6A8837583002280FEF280F5F0226F
:203F00000202C5000202DD0002082E00020833000202F30002033E0002082B000207AF005B
:203F20000207B1000207B2000207B3000207B6000208390002083A000207A4000207A600AE
:203F4000020830000207AF0002082A0002082C0002082D0002082F0002083100020832001E
:203F600002080D000207AF000207AF000207AF000207B0000207B4000207B7000207B9000A
:203F80000207B5000207B8000207BA0002080C000207A7000207A9000207AB000207AD00FD
:183FA0000207A8000207AA000207AC000207AE000207A5000208380049
:0107A4003222
:0107A5003221
:0107A6003220
:0107A700321F
:0107A800321E
:20008E007800E84400600A790075923CE4F309D8FC7800E84400600C7900903C00E4F0A308
:0400AE00D8FCD9FAA7
:0107A900321D
:0107AA00321C
:0107AB00321B
:0107AC00321A
:0107AD003219
:0107AE003218
:0107AF003217
:0107B0003216
:0107B1003215
:0107B2003214
:0107B3003213
:0107B4003212
:0107B5003211
:0107B6003210
:0107B700320F
:0107B800320E
:0107B900320D
:0107BA00320C
:2007BB00AE82AF8390E600E05418C423541F70057CB1FD801C90E600E05418C423541FFB4E
:2007DB00BB01067A617B0180047AC27B028A048B058C178D18E51724FFFAE51834FFFB8A74
:1107FB00178B18EA4B70EE1EBEFF011FEE4F70E122F5
:01080C0032B9
:01080D0032B8
:0D005900758121120834E582600302005613
:1C080E0020F71430F6148883A88220F507E6A88375830022E280F7E49322E022F9
:01082A00329B
:01082B00329A
:01082C003299
:01082D003298
:01082E003297
:01082F003296
:010830003295
:010831003294
:010832003293
:010833003292
:0408340075820022A7
:01083800328D
:01083900328C
:01083A00328B
:00000001FF
